{
  "_format": "hh-sol-artifact-1",
  "contractName": "FlashLoanArbitrage",
  "sourceName": "contracts/FlashLoanArbitrage.sol",
  "abi": [
    {
      "inputs": [
        {
          "internalType": "address",
          "name": "_quickswapRouter",
          "type": "address"
        },
        {
          "internalType": "address",
          "name": "_sushiswapRouter",
          "type": "address"
        },
        {
          "internalType": "address",
          "name": "_weth",
          "type": "address"
        },
        {
          "internalType": "address",
          "name": "_usdc",
          "type": "address"
        }
      ],
      "stateMutability": "nonpayable",
      "type": "constructor"
    },
    {
      "inputs": [
        {
          "internalType": "address",
          "name": "owner",
          "type": "address"
        }
      ],
      "name": "OwnableInvalidOwner",
      "type": "error"
    },
    {
      "inputs": [
        {
          "internalType": "address",
          "name": "account",
          "type": "address"
        }
      ],
      "name": "OwnableUnauthorizedAccount",
      "type": "error"
    },
    {
      "anonymous": false,
      "inputs": [
        {
          "indexed": false,
          "internalType": "uint256",
          "name": "profit",
          "type": "uint256"
        },
        {
          "indexed": false,
          "internalType": "uint256",
          "name": "timestamp",
          "type": "uint256"
        }
      ],
      "name": "ArbitrageExecuted",
      "type": "event"
    },
    {
      "anonymous": false,
      "inputs": [
        {
          "indexed": true,
          "internalType": "address",
          "name": "previousOwner",
          "type": "address"
        },
        {
          "indexed": true,
          "internalType": "address",
          "name": "newOwner",
          "type": "address"
        }
      ],
      "name": "OwnershipTransferred",
      "type": "event"
    },
    {
      "inputs": [],
      "name": "USDC",
      "outputs": [
        {
          "internalType": "address",
          "name": "",
          "type": "address"
        }
      ],
      "stateMutability": "view",
      "type": "function"
    },
    {
      "inputs": [],
      "name": "WETH",
      "outputs": [
        {
          "internalType": "address",
          "name": "",
          "type": "address"
        }
      ],
      "stateMutability": "view",
      "type": "function"
    },
    {
      "inputs": [],
      "name": "owner",
      "outputs": [
        {
          "internalType": "address",
          "name": "",
          "type": "address"
        }
      ],
      "stateMutability": "view",
      "type": "function"
    },
    {
      "inputs": [],
      "name": "quickswapRouter",
      "outputs": [
        {
          "internalType": "address",
          "name": "",
          "type": "address"
        }
      ],
      "stateMutability": "view",
      "type": "function"
    },
    {
      "inputs": [],
      "name": "renounceOwnership",
      "outputs": [],
      "stateMutability": "nonpayable",
      "type": "function"
    },
    {
      "inputs": [],
      "name": "sushiswapRouter",
      "outputs": [
        {
          "internalType": "address",
          "name": "",
          "type": "address"
        }
      ],
      "stateMutability": "view",
      "type": "function"
    },
    {
      "inputs": [
        {
          "internalType": "address",
          "name": "newOwner",
          "type": "address"
        }
      ],
      "name": "transferOwnership",
      "outputs": [],
      "stateMutability": "nonpayable",
      "type": "function"
    },
    {
      "inputs": [
        {
          "internalType": "address",
          "name": "sender",
          "type": "address"
        },
        {
          "internalType": "uint256",
          "name": "amount0",
          "type": "uint256"
        },
        {
          "internalType": "uint256",
          "name": "amount1",
          "type": "uint256"
        },
        {
          "internalType": "bytes",
          "name": "data",
          "type": "bytes"
        }
      ],
      "name": "uniswapV2Call",
      "outputs": [],
      "stateMutability": "nonpayable",
      "type": "function"
    },
    {
      "inputs": [],
      "name": "withdrawETH",
      "outputs": [],
      "stateMutability": "nonpayable",
      "type": "function"
    },
    {
      "inputs": [
        {
          "internalType": "address",
          "name": "token",
          "type": "address"
        }
      ],
      "name": "withdrawToken",
      "outputs": [],
      "stateMutability": "nonpayable",
      "type": "function"
    },
    {
      "stateMutability": "payable",
      "type": "receive"
    }
  ],
  "bytecode": "0x610100604090808252346200029c5760808162000eb48038038091620000268285620002a1565b8339810103126200029c576200003c81620002db565b906020916200004d838301620002db565b62000068606062000060878601620002db565b9401620002db565b913315620002845760008054336001600160a01b0319821681178355885192956001600160a01b03939290919084167f8be0079c531659141344cd1fd0a4f28419497f9722a3daafe3b4186f6b6457e08880a3836080528460a0528660c05260e0528163095ea7b360e01b938483521690816004820152878160448189876000199c8d6024850152165af180156200027a57918891879362000258575b5060448460e05116918b51948593849289845260048401528b60248401525af180156200022c5762000236575b5083868260448160c05116968b51948593849289845216988960048401528b60248401525af180156200022c576044928895949287926200020a575b5060e05116895197889586948552600485015260248401525af1908115620001ff5750620001ca575b8251610ba990816200030b8239608051816102bd015260a05181610136015260c05181610251015260e051816103010152f35b81620001ee92903d10620001f7575b620001e58183620002a1565b810190620002f0565b50388062000197565b503d620001d9565b8451903d90823e3d90fd5b6200022490873d8911620001f757620001e58183620002a1565b50386200016e565b88513d87823e3d90fd5b6200025090873d8911620001f757620001e58183620002a1565b503862000132565b6200027290833d8511620001f757620001e58183620002a1565b503862000105565b89513d88823e3d90fd5b8551631e4fbdf760e01b815260006004820152602490fd5b600080fd5b601f909101601f19168101906001600160401b03821190821017620002c557604052565b634e487b7160e01b600052604160045260246000fd5b51906001600160a01b03821682036200029c57565b908160209103126200029c575180151581036200029c579056fe60806040818152600480361015610021575b505050361561001f57600080fd5b005b600092833560e01c90816310d1e85c146104f657508063715018a614610499578063894760691461033057806389a30271146102ec5780638d87c4eb146102a85780638da5cb5b14610280578063ad5c46481461023c578063e086e5ec14610169578063e9240c2d146101215763f2fde38b03610011573461011d57602036600319011261011d576100b1610a94565b906100ba610aaf565b6001600160a01b0391821692831561010757505082546001600160a01b0319811683178455167f8be0079c531659141344cd1fd0a4f28419497f9722a3daafe3b4186f6b6457e08380a380f35b51631e4fbdf760e01b8152908101849052602490fd5b8280fd5b505034610165578160031936011261016557517f00000000000000000000000000000000000000000000000000000000000000006001600160a01b03168152602090f35b5080fd5b50919034610165578160031936011261016557610184610aaf565b47801561020457825483918291829182916001600160a01b03165af1903d156101f8573d9067ffffffffffffffff82116101e5576101e293945051906101d46020601f19601f8401160183610aef565b81528360203d92013e610b5e565b80f35b634e487b7160e01b845260418552602484fd5b506101e2919250610b5e565b815162461bcd60e51b815260208186015260126024820152714e6f2045544820746f20776974686472617760701b6044820152606490fd5b505034610165578160031936011261016557517f00000000000000000000000000000000000000000000000000000000000000006001600160a01b03168152602090f35b505034610165578160031936011261016557905490516001600160a01b039091168152602090f35b505034610165578160031936011261016557517f00000000000000000000000000000000000000000000000000000000000000006001600160a01b03168152602090f35b505034610165578160031936011261016557517f00000000000000000000000000000000000000000000000000000000000000006001600160a01b03168152602090f35b503461011d57602090816003193601126104955761034c610a94565b90610355610aaf565b83516370a0823160e01b81523081830152916001600160a01b0390811691908484602481865afa93841561048b578794610458575b50831561041d578654865163a9059cbb60e01b815291166001600160a01b031691810191825260208201939093528391839182908890829060400103925af1918215610410576101e2935084926103e3575b5050610b5e565b6104029250803d10610409575b6103fa8183610aef565b810190610b46565b38806103dc565b503d6103f0565b50505051903d90823e3d90fd5b855162461bcd60e51b815280830186905260156024820152744e6f20746f6b656e7320746f20776974686472617760581b6044820152606490fd5b9093508481813d8311610484575b6104708183610aef565b810103126104805751923861038a565b8680fd5b503d610466565b86513d89823e3d90fd5b8380fd5b83346104f357806003193601126104f3576104b2610aaf565b80546001600160a01b03198116825581906001600160a01b03167f8be0079c531659141344cd1fd0a4f28419497f9722a3daafe3b4186f6b6457e08280a380f35b80fd5b848484923461011d57608036600319011261011d57610513610a94565b60249485359260643567ffffffffffffffff80821161089257366023830112156108925781840135818111610a9057820192368a850111610a905788546001600160a01b039690871690871603610a615750851515958287600014610a5457606091945b031261089257610588898301610adb565b5061059560448301610adb565b8751630dfe168160e01b81526020969087818881335afa908115610a4a578b91610a2d575b50895163d21220a760e01b81529088828981335afa918215610a2357908d9695949392918d926109f4575b508a156109ed57809a5b156109e55750985b8a519960608b018b8110868211176109d3578c5260028b52898b01918c3684378b51156109c15783169a8b83528051916001928310156109af5784168d820152606461271097013587019788881161099e57888a02978a15998b8a04148a171561098c578e516338ed173960e01b8152808d018c905298049088015260a060448801525160a487018190528d9487949093909260c4860192878e5b82821061096757505050505083918286923060648301524260848301520393165af1801561095d576108c1575b5050600382029082820460031417156108af576103e89004810180911161089d5784516370a0823160e01b80825230848301529084818a81895afa908115610811579083918991610868575b501061081b57855163095ea7b360e01b8152338482019081526020810184905285908290819060400103818b8a5af1801561081157908592916107f4575b5088875180978193825230878301525afa9384156107ea5786946107b7575b5083039283116107a557507ffe4159880baf7d87ae542dd02a3a01f65900500376ba133eb8ac6b832771083d93945082519182524290820152a180f35b634e487b7160e01b8552601190528484fd5b9093508281813d83116107e3575b6107cf8183610aef565b810103126107df57519287610768565b8580fd5b503d6107c5565b85513d88823e3d90fd5b61080a90833d8511610409576103fa8183610aef565b5089610749565b87513d8a823e3d90fd5b855162461bcd60e51b81528084018590526022818a01527f496e73756666696369656e742062616c616e636520666f722072657061796d656044820152611b9d60f21b6064820152608490fd5b809250868092503d8311610896575b6108818183610aef565b81010312610892578290518a61070b565b8780fd5b503d610877565b634e487b7160e01b8652601182528686fd5b634e487b7160e01b8752601183528787fd5b3d808a843e6108d08184610aef565b820191868184031261094357805190828211610959570182601f820112156109435780519182116109475786808360051b938b519061091183870183610aef565b815201928201019283116109435786809101915b8383106109335750506106bf565b8251815291810191879101610925565b8980fd5b634e487b7160e01b8a52604186528a8afd5b8a80fd5b88513d8b823e3d90fd5b9194849799508684979950839295511681520195019101928f9694928996948e610692565b50634e487b7160e01b8f5260118b528efd5b634e487b7160e01b8f5260118b528efd5b634e487b7160e01b8f5260328b52888ffd5b634e487b7160e01b8e5260328a52878efd5b634e487b7160e01b8e5260418a52878efd5b9050986105f7565b819a6105ef565b610a159192508a3d8c11610a1c575b610a0d8183610aef565b810190610b27565b908e6105e5565b503d610a03565b8b513d8e823e3d90fd5b610a449150883d8a11610a1c57610a0d8183610aef565b8c6105ba565b8a513d8d823e3d90fd5b6060915060443594610577565b62461bcd60e51b8152602085820152600c8a8201526b155b985d5d1a1bdc9a5e995960a21b6044820152606490fd5b8880fd5b600435906001600160a01b0382168203610aaa57565b600080fd5b6000546001600160a01b03163303610ac357565b60405163118cdaa760e01b8152336004820152602490fd5b35906001600160a01b0382168203610aaa57565b90601f8019910116810190811067ffffffffffffffff821117610b1157604052565b634e487b7160e01b600052604160045260246000fd5b90816020910312610aaa57516001600160a01b0381168103610aaa5790565b90816020910312610aaa57518015158103610aaa5790565b15610b6557565b60405162461bcd60e51b815260206004820152600f60248201526e151c985b9cd9995c8819985a5b1959608a1b6044820152606490fdfea164736f6c6343000814000a",
  "linkReferences": {},
  "deployedLinkReferences": {}
}