{"contracts/FlashLoanReceiver.sol":{"FlashLoanReceiver":{"abi":[{"inputs":[{"internalType":"address","name":"_addressProvider","type":"address"}],"stateMutability":"nonpayable","type":"constructor"},{"inputs":[{"internalType":"address","name":"token","type":"address"}],"name":"SafeERC20FailedOperation","type":"error"},{"inputs":[],"name":"ADDRESSES_PROVIDER","outputs":[{"internalType":"contract IPoolAddressesProvider","name":"","type":"address"}],"stateMutability":"view","type":"function"},{"inputs":[],"name":"POOL","outputs":[{"internalType":"contract IPool","name":"","type":"address"}],"stateMutability":"view","type":"function"},{"inputs":[{"internalType":"address","name":"token","type":"address"},{"internalType":"address","name":"spender","type":"address"},{"internalType":"uint256","name":"amount","type":"uint256"}],"name":"approveToken","outputs":[],"stateMutability":"nonpayable","type":"function"},{"inputs":[],"name":"emergencyEthRecovery","outputs":[],"stateMutability":"nonpayable","type":"function"},{"inputs":[{"internalType":"address","name":"token","type":"address"}],"name":"emergencyTokenRecovery","outputs":[],"stateMutability":"nonpayable","type":"function"},{"inputs":[{"internalType":"address","name":"asset","type":"address"},{"internalType":"uint256","name":"amount","type":"uint256"},{"internalType":"uint256","name":"premium","type":"uint256"},{"internalType":"address","name":"initiator","type":"address"},{"internalType":"bytes","name":"params","type":"bytes"}],"name":"executeOperation","outputs":[{"internalType":"bool","name":"","type":"bool"}],"stateMutability":"nonpayable","type":"function"},{"inputs":[],"name":"owner","outputs":[{"internalType":"address","name":"","type":"address"}],"stateMutability":"view","type":"function"},{"inputs":[{"internalType":"address","name":"token","type":"address"},{"internalType":"uint256","name":"amount","type":"uint256"},{"internalType":"bytes","name":"params","type":"bytes"}],"name":"requestFlashLoan","outputs":[],"stateMutability":"nonpayable","type":"function"},{"inputs":[{"internalType":"address","name":"token","type":"address"},{"internalType":"address","name":"spender","type":"address"}],"name":"revokeTokenApproval","outputs":[],"stateMutability":"nonpayable","type":"function"},{"inputs":[{"internalType":"address","name":"token","type":"address"}],"name":"withdraw","outputs":[],"stateMutability":"nonpayable","type":"function"},{"stateMutability":"payable","type":"receive"}],"evm":{"bytecode":{"linkReferences":{},"object":"60c080604052346100e1576004602061088c803803809161002082876100e6565b85396001600160a01b0393849161003a919081019061011f565b16806080526040519283809263026b1d5f60e01b82525afa9081156100d5576000916100a7575b501660a052600080546001600160a01b0319163317905560405161074d908161013f8239608051816104f3015260a0518181816102090152818161028d015261043b0152f35b6100c8915060203d81116100ce575b6100c081836100e6565b81019061011f565b38610061565b503d6100b6565b6040513d6000823e3d90fd5b600080fd5b601f909101601f19168101906001600160401b0382119082101761010957604052565b634e487b7160e01b600052604160045260246000fd5b908160209103126100e157516001600160a01b03811681036100e1579056fe6080604081815260049081361015610022575b505050361561002057600080fd5b005b600092833560e01c9081630542975c146104df575080631b11d0ff1461039e5780634091bcb31461034c5780635107d61e1461023857806351cff8d9146101575780637535d246146101f45780638da5cb5b146101c857806391879a511461015c578063a0b2eefe146101575763da3e339703610012573461015357606036600319011261015357602061010a926100b8610522565b6100c061053d565b8660018060a01b036100d6818354163314610707565b865163095ea7b360e01b81526001600160a01b03909316948301948552604435602086015291968794859391849160400190565b0393165af190811561014a575061011f575080f35b61013f9060203d8111610143575b61013781836106b7565b8101906106ef565b5080f35b503d61012d565b513d84823e3d90fd5b8280fd5b610581565b50346101535780600319360112610153576020610177610522565b604461018161053d565b8660018060a01b038094610199828454163314610707565b8751988996879563095ea7b360e01b87521690850152826024850152165af190811561014a575061011f575080f35b8382346101f057816003193601126101f057905490516001600160a01b039091168152602090f35b5080fd5b8382346101f057816003193601126101f057517f00000000000000000000000000000000000000000000000000000000000000006001600160a01b03168152602090f35b503461015357606036600319011261015357610252610522565b9167ffffffffffffffff846044358281116101f0576102749036908501610553565b9560018060a01b0361028a818554163314610707565b807f00000000000000000000000000000000000000000000000000000000000000001691823b156103485760c485918a8a519b8c97889687946310ac2ddf60e21b86528d3090870152166024850152602435604485015260a060648501528160a48501528484013783838284010152836084830152601f801991011681010301925af1801561033e5761031b578480f35b831161032b575052388080808480f35b634e487b7160e01b845260419052602483fd5b83513d87823e3d90fd5b8480fd5b8382346101f057816003193601126101f0578180808060018060a01b03815416610377813314610707565b4790828215610395575bf11561038b575080f35b51903d90823e3d90fd5b506108fc610381565b508290346101f05760a03660031901126101f0576103ba610522565b602435906001600160a01b03606435818116036103485760843567ffffffffffffffff81116104db576103f260809136908901610553565b90809291810103126104db57848161040c610420936106a3565b50610419602082016106a3565b50016106a3565b5060443583018093116104c857835163095ea7b360e01b81527f000000000000000000000000000000000000000000000000000000000000000082166001600160a01b03168782019081526020808201959095529093928492918390036040019183918891165af180156104bc576020935061049f575b505160018152f35b6104b590833d81116101435761013781836106b7565b5082610497565b505051903d90823e3d90fd5b634e487b7160e01b855260118652602485fd5b8580fd5b8490346101f057816003193601126101f0577f00000000000000000000000000000000000000000000000000000000000000006001600160a01b03168152602090f35b600435906001600160a01b038216820361053857565b600080fd5b602435906001600160a01b038216820361053857565b9181601f840112156105385782359167ffffffffffffffff8311610538576020838186019501011161053857565b34610538576020806003193601126105385761059b610522565b60018060a01b03916000838194825416936105b7853314610707565b16926040516370a0823160e01b81523060048201528381602481885afa908115610698578391610669575b5060405163a9059cbb60e01b8582019081526001600160a01b0393909316602482015260448082019290925290815261061c6064826106b7565b519082855af11561065c5781513d6106535750803b155b61063b575080f35b60249060405190635274afe760e01b82526004820152fd5b60011415610633565b50604051903d90823e3d90fd5b90508381813d8311610691575b61068081836106b7565b81010312610153575161061c6105e2565b503d610676565b6040513d85823e3d90fd5b35906001600160a01b038216820361053857565b90601f8019910116810190811067ffffffffffffffff8211176106d957604052565b634e487b7160e01b600052604160045260246000fd5b90816020910312610538575180151581036105385790565b1561070e57565b60405162461bcd60e51b815260206004820152600a60248201526927b7363c9037bbb732b960b11b6044820152606490fdfea164736f6c6343000814000a","opcodes":"PUSH1 0xC0 DUP1 PUSH1 0x40 MSTORE CALLVALUE PUSH2 0xE1 JUMPI PUSH1 0x4 PUSH1 0x20 PUSH2 0x88C DUP1 CODESIZE SUB DUP1 SWAP2 PUSH2 0x20 DUP3 DUP8 PUSH2 0xE6 JUMP JUMPDEST DUP6 CODECOPY PUSH1 0x1 PUSH1 0x1 PUSH1 0xA0 SHL SUB SWAP4 DUP5 SWAP2 PUSH2 0x3A SWAP2 SWAP1 DUP2 ADD SWAP1 PUSH2 0x11F JUMP JUMPDEST AND DUP1 PUSH1 0x80 MSTORE PUSH1 0x40 MLOAD SWAP3 DUP4 DUP1 SWAP3 PUSH4 0x26B1D5F PUSH1 0xE0 SHL DUP3 MSTORE GAS STATICCALL SWAP1 DUP2 ISZERO PUSH2 0xD5 JUMPI PUSH1 0x0 SWAP2 PUSH2 0xA7 JUMPI JUMPDEST POP AND PUSH1 0xA0 MSTORE PUSH1 0x0 DUP1 SLOAD PUSH1 0x1 PUSH1 0x1 PUSH1 0xA0 SHL SUB NOT AND CALLER OR SWAP1 SSTORE PUSH1 0x40 MLOAD PUSH2 0x74D SWAP1 DUP2 PUSH2 0x13F DUP3 CODECOPY PUSH1 0x80 MLOAD DUP2 PUSH2 0x4F3 ADD MSTORE PUSH1 0xA0 MLOAD DUP2 DUP2 DUP2 PUSH2 0x209 ADD MSTORE DUP2 DUP2 PUSH2 0x28D ADD MSTORE PUSH2 0x43B ADD MSTORE RETURN JUMPDEST PUSH2 0xC8 SWAP2 POP PUSH1 0x20 RETURNDATASIZE DUP2 GT PUSH2 0xCE JUMPI JUMPDEST PUSH2 0xC0 DUP2 DUP4 PUSH2 0xE6 JUMP JUMPDEST DUP2 ADD SWAP1 PUSH2 0x11F JUMP JUMPDEST CODESIZE PUSH2 0x61 JUMP JUMPDEST POP RETURNDATASIZE PUSH2 0xB6 JUMP JUMPDEST PUSH1 0x40 MLOAD RETURNDATASIZE PUSH1 0x0 DUP3 RETURNDATACOPY RETURNDATASIZE SWAP1 REVERT JUMPDEST PUSH1 0x0 DUP1 REVERT JUMPDEST PUSH1 0x1F SWAP1 SWAP2 ADD PUSH1 0x1F NOT AND DUP2 ADD SWAP1 PUSH1 0x1 PUSH1 0x1 PUSH1 0x40 SHL SUB DUP3 GT SWAP1 DUP3 LT OR PUSH2 0x109 JUMPI PUSH1 0x40 MSTORE JUMP JUMPDEST PUSH4 0x4E487B71 PUSH1 0xE0 SHL PUSH1 0x0 MSTORE PUSH1 0x41 PUSH1 0x4 MSTORE PUSH1 0x24 PUSH1 0x0 REVERT JUMPDEST SWAP1 DUP2 PUSH1 0x20 SWAP2 SUB SLT PUSH2 0xE1 JUMPI MLOAD PUSH1 0x1 PUSH1 0x1 PUSH1 0xA0 SHL SUB DUP2 AND DUP2 SUB PUSH2 0xE1 JUMPI SWAP1 JUMP INVALID PUSH1 0x80 PUSH1 0x40 DUP2 DUP2 MSTORE PUSH1 0x4 SWAP1 DUP2 CALLDATASIZE LT ISZERO PUSH2 0x22 JUMPI JUMPDEST POP POP POP CALLDATASIZE ISZERO PUSH2 0x20 JUMPI PUSH1 0x0 DUP1 REVERT JUMPDEST STOP JUMPDEST PUSH1 0x0 SWAP3 DUP4 CALLDATALOAD PUSH1 0xE0 SHR SWAP1 DUP2 PUSH4 0x542975C EQ PUSH2 0x4DF JUMPI POP DUP1 PUSH4 0x1B11D0FF EQ PUSH2 0x39E JUMPI DUP1 PUSH4 0x4091BCB3 EQ PUSH2 0x34C JUMPI DUP1 PUSH4 0x5107D61E EQ PUSH2 0x238 JUMPI DUP1 PUSH4 0x51CFF8D9 EQ PUSH2 0x157 JUMPI DUP1 PUSH4 0x7535D246 EQ PUSH2 0x1F4 JUMPI DUP1 PUSH4 0x8DA5CB5B EQ PUSH2 0x1C8 JUMPI DUP1 PUSH4 0x91879A51 EQ PUSH2 0x15C JUMPI DUP1 PUSH4 0xA0B2EEFE EQ PUSH2 0x157 JUMPI PUSH4 0xDA3E3397 SUB PUSH2 0x12 JUMPI CALLVALUE PUSH2 0x153 JUMPI PUSH1 0x60 CALLDATASIZE PUSH1 0x3 NOT ADD SLT PUSH2 0x153 JUMPI PUSH1 0x20 PUSH2 0x10A SWAP3 PUSH2 0xB8 PUSH2 0x522 JUMP JUMPDEST PUSH2 0xC0 PUSH2 0x53D JUMP JUMPDEST DUP7 PUSH1 0x1 DUP1 PUSH1 0xA0 SHL SUB PUSH2 0xD6 DUP2 DUP4 SLOAD AND CALLER EQ PUSH2 0x707 JUMP JUMPDEST DUP7 MLOAD PUSH4 0x95EA7B3 PUSH1 0xE0 SHL DUP2 MSTORE PUSH1 0x1 PUSH1 0x1 PUSH1 0xA0 SHL SUB SWAP1 SWAP4 AND SWAP5 DUP4 ADD SWAP5 DUP6 MSTORE PUSH1 0x44 CALLDATALOAD PUSH1 0x20 DUP7 ADD MSTORE SWAP2 SWAP7 DUP8 SWAP5 DUP6 SWAP4 SWAP2 DUP5 SWAP2 PUSH1 0x40 ADD SWAP1 JUMP JUMPDEST SUB SWAP4 AND GAS CALL SWAP1 DUP2 ISZERO PUSH2 0x14A JUMPI POP PUSH2 0x11F JUMPI POP DUP1 RETURN JUMPDEST PUSH2 0x13F SWAP1 PUSH1 0x20 RETURNDATASIZE DUP2 GT PUSH2 0x143 JUMPI JUMPDEST PUSH2 0x137 DUP2 DUP4 PUSH2 0x6B7 JUMP JUMPDEST DUP2 ADD SWAP1 PUSH2 0x6EF JUMP JUMPDEST POP DUP1 RETURN JUMPDEST POP RETURNDATASIZE PUSH2 0x12D JUMP JUMPDEST MLOAD RETURNDATASIZE DUP5 DUP3 RETURNDATACOPY RETURNDATASIZE SWAP1 REVERT JUMPDEST DUP3 DUP1 REVERT JUMPDEST PUSH2 0x581 JUMP JUMPDEST POP CALLVALUE PUSH2 0x153 JUMPI DUP1 PUSH1 0x3 NOT CALLDATASIZE ADD SLT PUSH2 0x153 JUMPI PUSH1 0x20 PUSH2 0x177 PUSH2 0x522 JUMP JUMPDEST PUSH1 0x44 PUSH2 0x181 PUSH2 0x53D JUMP JUMPDEST DUP7 PUSH1 0x1 DUP1 PUSH1 0xA0 SHL SUB DUP1 SWAP5 PUSH2 0x199 DUP3 DUP5 SLOAD AND CALLER EQ PUSH2 0x707 JUMP JUMPDEST DUP8 MLOAD SWAP9 DUP10 SWAP7 DUP8 SWAP6 PUSH4 0x95EA7B3 PUSH1 0xE0 SHL DUP8 MSTORE AND SWAP1 DUP6 ADD MSTORE DUP3 PUSH1 0x24 DUP6 ADD MSTORE AND GAS CALL SWAP1 DUP2 ISZERO PUSH2 0x14A JUMPI POP PUSH2 0x11F JUMPI POP DUP1 RETURN JUMPDEST DUP4 DUP3 CALLVALUE PUSH2 0x1F0 JUMPI DUP2 PUSH1 0x3 NOT CALLDATASIZE ADD SLT PUSH2 0x1F0 JUMPI SWAP1 SLOAD SWAP1 MLOAD PUSH1 0x1 PUSH1 0x1 PUSH1 0xA0 SHL SUB SWAP1 SWAP2 AND DUP2 MSTORE PUSH1 0x20 SWAP1 RETURN JUMPDEST POP DUP1 REVERT JUMPDEST DUP4 DUP3 CALLVALUE PUSH2 0x1F0 JUMPI DUP2 PUSH1 0x3 NOT CALLDATASIZE ADD SLT PUSH2 0x1F0 JUMPI MLOAD PUSH32 0x0 PUSH1 0x1 PUSH1 0x1 PUSH1 0xA0 SHL SUB AND DUP2 MSTORE PUSH1 0x20 SWAP1 RETURN JUMPDEST POP CALLVALUE PUSH2 0x153 JUMPI PUSH1 0x60 CALLDATASIZE PUSH1 0x3 NOT ADD SLT PUSH2 0x153 JUMPI PUSH2 0x252 PUSH2 0x522 JUMP JUMPDEST SWAP2 PUSH8 0xFFFFFFFFFFFFFFFF DUP5 PUSH1 0x44 CALLDATALOAD DUP3 DUP2 GT PUSH2 0x1F0 JUMPI PUSH2 0x274 SWAP1 CALLDATASIZE SWAP1 DUP6 ADD PUSH2 0x553 JUMP JUMPDEST SWAP6 PUSH1 0x1 DUP1 PUSH1 0xA0 SHL SUB PUSH2 0x28A DUP2 DUP6 SLOAD AND CALLER EQ PUSH2 0x707 JUMP JUMPDEST DUP1 PUSH32 0x0 AND SWAP2 DUP3 EXTCODESIZE ISZERO PUSH2 0x348 JUMPI PUSH1 0xC4 DUP6 SWAP2 DUP11 DUP11 MLOAD SWAP12 DUP13 SWAP8 DUP9 SWAP7 DUP8 SWAP5 PUSH4 0x10AC2DDF PUSH1 0xE2 SHL DUP7 MSTORE DUP14 ADDRESS SWAP1 DUP8 ADD MSTORE AND PUSH1 0x24 DUP6 ADD MSTORE PUSH1 0x24 CALLDATALOAD PUSH1 0x44 DUP6 ADD MSTORE PUSH1 0xA0 PUSH1 0x64 DUP6 ADD MSTORE DUP2 PUSH1 0xA4 DUP6 ADD MSTORE DUP5 DUP5 ADD CALLDATACOPY DUP4 DUP4 DUP3 DUP5 ADD ADD MSTORE DUP4 PUSH1 0x84 DUP4 ADD MSTORE PUSH1 0x1F DUP1 NOT SWAP2 ADD AND DUP2 ADD SUB ADD SWAP3 GAS CALL DUP1 ISZERO PUSH2 0x33E JUMPI PUSH2 0x31B JUMPI DUP5 DUP1 RETURN JUMPDEST DUP4 GT PUSH2 0x32B JUMPI POP MSTORE CODESIZE DUP1 DUP1 DUP1 DUP5 DUP1 RETURN JUMPDEST PUSH4 0x4E487B71 PUSH1 0xE0 SHL DUP5 MSTORE PUSH1 0x41 SWAP1 MSTORE PUSH1 0x24 DUP4 REVERT JUMPDEST DUP4 MLOAD RETURNDATASIZE DUP8 DUP3 RETURNDATACOPY RETURNDATASIZE SWAP1 REVERT JUMPDEST DUP5 DUP1 REVERT JUMPDEST DUP4 DUP3 CALLVALUE PUSH2 0x1F0 JUMPI DUP2 PUSH1 0x3 NOT CALLDATASIZE ADD SLT PUSH2 0x1F0 JUMPI DUP2 DUP1 DUP1 DUP1 PUSH1 0x1 DUP1 PUSH1 0xA0 SHL SUB DUP2 SLOAD AND PUSH2 0x377 DUP2 CALLER EQ PUSH2 0x707 JUMP JUMPDEST SELFBALANCE SWAP1 DUP3 DUP3 ISZERO PUSH2 0x395 JUMPI JUMPDEST CALL ISZERO PUSH2 0x38B JUMPI POP DUP1 RETURN JUMPDEST MLOAD SWAP1 RETURNDATASIZE SWAP1 DUP3 RETURNDATACOPY RETURNDATASIZE SWAP1 REVERT JUMPDEST POP PUSH2 0x8FC PUSH2 0x381 JUMP JUMPDEST POP DUP3 SWAP1 CALLVALUE PUSH2 0x1F0 JUMPI PUSH1 0xA0 CALLDATASIZE PUSH1 0x3 NOT ADD SLT PUSH2 0x1F0 JUMPI PUSH2 0x3BA PUSH2 0x522 JUMP JUMPDEST PUSH1 0x24 CALLDATALOAD SWAP1 PUSH1 0x1 PUSH1 0x1 PUSH1 0xA0 SHL SUB PUSH1 0x64 CALLDATALOAD DUP2 DUP2 AND SUB PUSH2 0x348 JUMPI PUSH1 0x84 CALLDATALOAD PUSH8 0xFFFFFFFFFFFFFFFF DUP2 GT PUSH2 0x4DB JUMPI PUSH2 0x3F2 PUSH1 0x80 SWAP2 CALLDATASIZE SWAP1 DUP10 ADD PUSH2 0x553 JUMP JUMPDEST SWAP1 DUP1 SWAP3 SWAP2 DUP2 ADD SUB SLT PUSH2 0x4DB JUMPI DUP5 DUP2 PUSH2 0x40C PUSH2 0x420 SWAP4 PUSH2 0x6A3 JUMP JUMPDEST POP PUSH2 0x419 PUSH1 0x20 DUP3 ADD PUSH2 0x6A3 JUMP JUMPDEST POP ADD PUSH2 0x6A3 JUMP JUMPDEST POP PUSH1 0x44 CALLDATALOAD DUP4 ADD DUP1 SWAP4 GT PUSH2 0x4C8 JUMPI DUP4 MLOAD PUSH4 0x95EA7B3 PUSH1 0xE0 SHL DUP2 MSTORE PUSH32 0x0 DUP3 AND PUSH1 0x1 PUSH1 0x1 PUSH1 0xA0 SHL SUB AND DUP8 DUP3 ADD SWAP1 DUP2 MSTORE PUSH1 0x20 DUP1 DUP3 ADD SWAP6 SWAP1 SWAP6 MSTORE SWAP1 SWAP4 SWAP3 DUP5 SWAP3 SWAP2 DUP4 SWAP1 SUB PUSH1 0x40 ADD SWAP2 DUP4 SWAP2 DUP9 SWAP2 AND GAS CALL DUP1 ISZERO PUSH2 0x4BC JUMPI PUSH1 0x20 SWAP4 POP PUSH2 0x49F JUMPI JUMPDEST POP MLOAD PUSH1 0x1 DUP2 MSTORE RETURN JUMPDEST PUSH2 0x4B5 SWAP1 DUP4 RETURNDATASIZE DUP2 GT PUSH2 0x143 JUMPI PUSH2 0x137 DUP2 DUP4 PUSH2 0x6B7 JUMP JUMPDEST POP DUP3 PUSH2 0x497 JUMP JUMPDEST POP POP MLOAD SWAP1 RETURNDATASIZE SWAP1 DUP3 RETURNDATACOPY RETURNDATASIZE SWAP1 REVERT JUMPDEST PUSH4 0x4E487B71 PUSH1 0xE0 SHL DUP6 MSTORE PUSH1 0x11 DUP7 MSTORE PUSH1 0x24 DUP6 REVERT JUMPDEST DUP6 DUP1 REVERT JUMPDEST DUP5 SWAP1 CALLVALUE PUSH2 0x1F0 JUMPI DUP2 PUSH1 0x3 NOT CALLDATASIZE ADD SLT PUSH2 0x1F0 JUMPI PUSH32 0x0 PUSH1 0x1 PUSH1 0x1 PUSH1 0xA0 SHL SUB AND DUP2 MSTORE PUSH1 0x20 SWAP1 RETURN JUMPDEST PUSH1 0x4 CALLDATALOAD SWAP1 PUSH1 0x1 PUSH1 0x1 PUSH1 0xA0 SHL SUB DUP3 AND DUP3 SUB PUSH2 0x538 JUMPI JUMP JUMPDEST PUSH1 0x0 DUP1 REVERT JUMPDEST PUSH1 0x24 CALLDATALOAD SWAP1 PUSH1 0x1 PUSH1 0x1 PUSH1 0xA0 SHL SUB DUP3 AND DUP3 SUB PUSH2 0x538 JUMPI JUMP JUMPDEST SWAP2 DUP2 PUSH1 0x1F DUP5 ADD SLT ISZERO PUSH2 0x538 JUMPI DUP3 CALLDATALOAD SWAP2 PUSH8 0xFFFFFFFFFFFFFFFF DUP4 GT PUSH2 0x538 JUMPI PUSH1 0x20 DUP4 DUP2 DUP7 ADD SWAP6 ADD ADD GT PUSH2 0x538 JUMPI JUMP JUMPDEST CALLVALUE PUSH2 0x538 JUMPI PUSH1 0x20 DUP1 PUSH1 0x3 NOT CALLDATASIZE ADD SLT PUSH2 0x538 JUMPI PUSH2 0x59B PUSH2 0x522 JUMP JUMPDEST PUSH1 0x1 DUP1 PUSH1 0xA0 SHL SUB SWAP2 PUSH1 0x0 DUP4 DUP2 SWAP5 DUP3 SLOAD AND SWAP4 PUSH2 0x5B7 DUP6 CALLER EQ PUSH2 0x707 JUMP JUMPDEST AND SWAP3 PUSH1 0x40 MLOAD PUSH4 0x70A08231 PUSH1 0xE0 SHL DUP2 MSTORE ADDRESS PUSH1 0x4 DUP3 ADD MSTORE DUP4 DUP2 PUSH1 0x24 DUP2 DUP9 GAS STATICCALL SWAP1 DUP2 ISZERO PUSH2 0x698 JUMPI DUP4 SWAP2 PUSH2 0x669 JUMPI JUMPDEST POP PUSH1 0x40 MLOAD PUSH4 0xA9059CBB PUSH1 0xE0 SHL DUP6 DUP3 ADD SWAP1 DUP2 MSTORE PUSH1 0x1 PUSH1 0x1 PUSH1 0xA0 SHL SUB SWAP4 SWAP1 SWAP4 AND PUSH1 0x24 DUP3 ADD MSTORE PUSH1 0x44 DUP1 DUP3 ADD SWAP3 SWAP1 SWAP3 MSTORE SWAP1 DUP2 MSTORE PUSH2 0x61C PUSH1 0x64 DUP3 PUSH2 0x6B7 JUMP JUMPDEST MLOAD SWAP1 DUP3 DUP6 GAS CALL ISZERO PUSH2 0x65C JUMPI DUP2 MLOAD RETURNDATASIZE PUSH2 0x653 JUMPI POP DUP1 EXTCODESIZE ISZERO JUMPDEST PUSH2 0x63B JUMPI POP DUP1 RETURN JUMPDEST PUSH1 0x24 SWAP1 PUSH1 0x40 MLOAD SWAP1 PUSH4 0x5274AFE7 PUSH1 0xE0 SHL DUP3 MSTORE PUSH1 0x4 DUP3 ADD MSTORE REVERT JUMPDEST PUSH1 0x1 EQ ISZERO PUSH2 0x633 JUMP JUMPDEST POP PUSH1 0x40 MLOAD SWAP1 RETURNDATASIZE SWAP1 DUP3 RETURNDATACOPY RETURNDATASIZE SWAP1 REVERT JUMPDEST SWAP1 POP DUP4 DUP2 DUP2 RETURNDATASIZE DUP4 GT PUSH2 0x691 JUMPI JUMPDEST PUSH2 0x680 DUP2 DUP4 PUSH2 0x6B7 JUMP JUMPDEST DUP2 ADD SUB SLT PUSH2 0x153 JUMPI MLOAD PUSH2 0x61C PUSH2 0x5E2 JUMP JUMPDEST POP RETURNDATASIZE PUSH2 0x676 JUMP JUMPDEST PUSH1 0x40 MLOAD RETURNDATASIZE DUP6 DUP3 RETURNDATACOPY RETURNDATASIZE SWAP1 REVERT JUMPDEST CALLDATALOAD SWAP1 PUSH1 0x1 PUSH1 0x1 PUSH1 0xA0 SHL SUB DUP3 AND DUP3 SUB PUSH2 0x538 JUMPI JUMP JUMPDEST SWAP1 PUSH1 0x1F DUP1 NOT SWAP2 ADD AND DUP2 ADD SWAP1 DUP2 LT PUSH8 0xFFFFFFFFFFFFFFFF DUP3 GT OR PUSH2 0x6D9 JUMPI PUSH1 0x40 MSTORE JUMP JUMPDEST PUSH4 0x4E487B71 PUSH1 0xE0 SHL PUSH1 0x0 MSTORE PUSH1 0x41 PUSH1 0x4 MSTORE PUSH1 0x24 PUSH1 0x0 REVERT JUMPDEST SWAP1 DUP2 PUSH1 0x20 SWAP2 SUB SLT PUSH2 0x538 JUMPI MLOAD DUP1 ISZERO ISZERO DUP2 SUB PUSH2 0x538 JUMPI SWAP1 JUMP JUMPDEST ISZERO PUSH2 0x70E JUMPI JUMP JUMPDEST PUSH1 0x40 MLOAD PUSH3 0x461BCD PUSH1 0xE5 SHL DUP2 MSTORE PUSH1 0x20 PUSH1 0x4 DUP3 ADD MSTORE PUSH1 0xA PUSH1 0x24 DUP3 ADD MSTORE PUSH10 0x27B7363C9037BBB732B9 PUSH1 0xB1 SHL PUSH1 0x44 DUP3 ADD MSTORE PUSH1 0x64 SWAP1 REVERT INVALID LOG1 PUSH5 0x736F6C6343 STOP ADDMOD EQ STOP EXP "},"methodIdentifiers":{"ADDRESSES_PROVIDER()":"0542975c","POOL()":"7535d246","approveToken(address,address,uint256)":"da3e3397","emergencyEthRecovery()":"4091bcb3","emergencyTokenRecovery(address)":"a0b2eefe","executeOperation(address,uint256,uint256,address,bytes)":"1b11d0ff","owner()":"8da5cb5b","requestFlashLoan(address,uint256,bytes)":"5107d61e","revokeTokenApproval(address,address)":"91879a51","withdraw(address)":"51cff8d9"}}}}}