{"contracts/FlashLoanReceiver.sol":{"FlashLoanReceiver":{"abi":[{"inputs":[{"internalType":"address","name":"_addressProvider","type":"address"}],"stateMutability":"nonpayable","type":"constructor"},{"inputs":[{"internalType":"address","name":"owner","type":"address"}],"name":"OwnableInvalidOwner","type":"error"},{"inputs":[{"internalType":"address","name":"account","type":"address"}],"name":"OwnableUnauthorizedAccount","type":"error"},{"anonymous":false,"inputs":[{"indexed":false,"internalType":"string","name":"message","type":"string"},{"indexed":false,"internalType":"uint256","name":"value","type":"uint256"}],"name":"DebugLog","type":"event"},{"anonymous":false,"inputs":[{"indexed":false,"internalType":"string","name":"message","type":"string"}],"name":"ErrorLog","type":"event"},{"anonymous":false,"inputs":[{"indexed":false,"internalType":"address","name":"asset","type":"address"},{"indexed":false,"internalType":"uint256","name":"amount","type":"uint256"},{"indexed":false,"internalType":"uint256","name":"premium","type":"uint256"}],"name":"FlashLoanReceived","type":"event"},{"anonymous":false,"inputs":[{"indexed":false,"internalType":"address","name":"asset","type":"address"},{"indexed":false,"internalType":"uint256","name":"amount","type":"uint256"}],"name":"FlashLoanRequested","type":"event"},{"anonymous":false,"inputs":[{"indexed":true,"internalType":"address","name":"previousOwner","type":"address"},{"indexed":true,"internalType":"address","name":"newOwner","type":"address"}],"name":"OwnershipTransferred","type":"event"},{"anonymous":false,"inputs":[{"indexed":false,"internalType":"address","name":"asset","type":"address"},{"indexed":false,"internalType":"uint256","name":"amount","type":"uint256"}],"name":"RepaymentApproved","type":"event"},{"anonymous":false,"inputs":[{"indexed":false,"internalType":"address","name":"tokenIn","type":"address"},{"indexed":false,"internalType":"address","name":"tokenOut","type":"address"},{"indexed":false,"internalType":"uint256","name":"amountIn","type":"uint256"},{"indexed":false,"internalType":"uint256","name":"amountOut","type":"uint256"}],"name":"SwapExecuted","type":"event"},{"inputs":[],"name":"ADDRESSES_PROVIDER","outputs":[{"internalType":"contract IPoolAddressesProvider","name":"","type":"address"}],"stateMutability":"view","type":"function"},{"inputs":[],"name":"POOL","outputs":[{"internalType":"contract IPool","name":"","type":"address"}],"stateMutability":"view","type":"function"},{"inputs":[{"internalType":"address","name":"token","type":"address"},{"internalType":"address","name":"spender","type":"address"},{"internalType":"uint256","name":"amount","type":"uint256"}],"name":"approveToken","outputs":[],"stateMutability":"nonpayable","type":"function"},{"inputs":[{"internalType":"address","name":"asset","type":"address"},{"internalType":"uint256","name":"amount","type":"uint256"},{"internalType":"uint256","name":"premium","type":"uint256"},{"internalType":"address","name":"","type":"address"},{"internalType":"bytes","name":"params","type":"bytes"}],"name":"executeOperation","outputs":[{"internalType":"bool","name":"","type":"bool"}],"stateMutability":"nonpayable","type":"function"},{"inputs":[],"name":"owner","outputs":[{"internalType":"address","name":"","type":"address"}],"stateMutability":"view","type":"function"},{"inputs":[],"name":"renounceOwnership","outputs":[],"stateMutability":"nonpayable","type":"function"},{"inputs":[{"internalType":"address","name":"token","type":"address"},{"internalType":"uint256","name":"amount","type":"uint256"},{"internalType":"bytes","name":"params","type":"bytes"}],"name":"requestFlashLoan","outputs":[],"stateMutability":"nonpayable","type":"function"},{"inputs":[{"internalType":"address","name":"newOwner","type":"address"}],"name":"transferOwnership","outputs":[],"stateMutability":"nonpayable","type":"function"},{"inputs":[{"internalType":"address","name":"token","type":"address"}],"name":"withdraw","outputs":[],"stateMutability":"nonpayable","type":"function"}],"evm":{"bytecode":{"linkReferences":{},"object":"60c0806040523462000134576004602062000ff1803803809162000024828762000139565b85396001600160a01b0393849162000040919081019062000173565b16806080526040519283809263026b1d5f60e01b82525afa801562000128578291600091620000f3575b501660a0523315620000da576000543360018060a01b0319821617600055604051913391167f8be0079c531659141344cd1fd0a4f28419497f9722a3daafe3b4186f6b6457e0600080a3610e5c9081620001958239608051816108d4015260a05181818161021d01526104750152f35b604051631e4fbdf760e01b815260006004820152602490fd5b62000119915060203d811162000120575b62000110818362000139565b81019062000173565b386200006a565b503d62000104565b6040513d6000823e3d90fd5b600080fd5b601f909101601f19168101906001600160401b038211908210176200015d57604052565b634e487b7160e01b600052604160045260246000fd5b908160209103126200013457516001600160a01b038116810362000134579056fe6080604081815260048036101561001557600080fd5b600092833560e01c9081630542975c146108c0575080631b11d0ff146105705780635107d61e146103e157806351cff8d9146102a9578063715018a61461024c5780637535d246146102085780638da5cb5b146101dc578063da3e3397146101195763f2fde38b1461008657600080fd5b346101155760203660031901126101155761009f610903565b906100a8610947565b6001600160a01b039182169283156100ff575050600054826bffffffffffffffffffffffff60a01b821617600055167f8be0079c531659141344cd1fd0a4f28419497f9722a3daafe3b4186f6b6457e0600080a380f35b51631e4fbdf760e01b8152908101849052602490fd5b8280fd5b50903461011557606036600319011261011557610134610903565b602435926001600160a01b039182851685036101d75761018e948660209461015a610947565b865163095ea7b360e01b81526001600160a01b03909316948301948552604435602086015291968794859391849160400190565b0393165af19081156101ce57506101a3575080f35b6101c39060203d81116101c7575b6101bb8183610987565b8101906109bf565b5080f35b503d6101b1565b513d84823e3d90fd5b600080fd5b505034610204578160031936011261020457905490516001600160a01b039091168152602090f35b5080fd5b505034610204578160031936011261020457517f00000000000000000000000000000000000000000000000000000000000000006001600160a01b03168152602090f35b83346102a657806003193601126102a657610265610947565b600080546001600160a01b0319811682556001600160a01b03167f8be0079c531659141344cd1fd0a4f28419497f9722a3daafe3b4186f6b6457e08280a380f35b80fd5b509190346102045760209081600319360112610115576102c7610903565b6102cf610947565b81516370a0823160e01b815230818701526001600160a01b0391909116948382602481895afa9182156103d75785926103a8575b50811561036d57825163a9059cbb60e01b8152339181019182526020820192909252909190839083908190036040018187895af19081156103645750610347578280f35b8161035d92903d106101c7576101bb8183610987565b5081808280f35b513d85823e3d90fd5b825162461bcd60e51b815290810184905260156024820152744e6f20746f6b656e7320746f20776974686472617760581b6044820152606490fd5b9091508381813d83116103d0575b6103c08183610987565b810103126101d757519038610303565b503d6103b6565b83513d87823e3d90fd5b509034610115576060366003190112610115576103fc610903565b602435929067ffffffffffffffff9060443582811161056c576104229036908501610919565b909186156105295785516001600160a01b03821681526020810188905288939291907f36b2acb66143c7d81ece04083e3157526cab9360d579ecd6ed68c9e7481123f190604090a16001600160a01b03927f0000000000000000000000000000000000000000000000000000000000000000841692833b1561052557878160c49288948c519d8e998a9889966310ac2ddf60e21b88523090880152166024860152604485015260a060648501528160a48501528484013783838284010152836084830152601f801991011681010301925af180156103d757610502578480f35b8311610512575052388080808480f35b634e487b7160e01b845260419052602483fd5b8580fd5b855162461bcd60e51b8152602081870152601d60248201527f416d6f756e74206d7573742062652067726561746572207468616e20300000006044820152606490fd5b8680fd5b5090346101155760a03660031901126101155761058b610903565b6001600160a01b03926024359190604435906064358681160361056c5760843567ffffffffffffffff81116108bc576105c79036908301610919565b81906060928391810103126108b8576105df81610973565b90602098886105ef8b8401610973565b9201359162ffffff8316968784036108b4578b977f1343998c8d6022eb07eb12064b021c43c49447832d6f53815b05b4b8f43a9ced878b848f8f898060809d16991699825194169e8f8552840152820152a18b51908c825260038d8301526246656560e81b888301528d820152600080516020610e30833981519152958691a18901988981116108a157928270119a5c9cdd081cddd85c081c995cdd5b1d607a1b8a61071f948f988f8f9b9a908b60809a926107058f8d95879f88888f9482828b518c8152600e8d8201526d0416d6f756e7420746f20737761760941b8c820152868b820152a18951908a8252600f8b8301526e416d6f756e7420746f20726570617960881b8a83015288820152a1898b6109d7565b9788926011855195808752860152840152820152a16109d7565b926b119a5b985b08185b5bdd5b9d60a21b8a51918b8352600c8c840152820152838b820152a11061084f57845163095ea7b360e01b8082523383830152602482018990528891888160448186895af1801561084557926107a995928a95928995610828575b5089519081523392810192835260208301949094529294859384929091839160400190565b03925af1801561081e577f314562d4d0dd0340fa30931e299dd755c5c2c14596a1bb6623310ad16348334a94959650610801575b5083516001600160a01b039190911681526020810191909152604090a15160018152f35b61081790863d88116101c7576101bb8183610987565b50386107dd565b84513d88823e3d90fd5b61083e90873d89116101c7576101bb8183610987565b5038610784565b88513d85823e3d90fd5b845162461bcd60e51b8152908101869052602660248201527f496e73756666696369656e742066756e647320746f20726570617920666c617360448201526534103637b0b760d11b6064820152608490fd5b634e487b7160e01b8d526011875260248dfd5b8c80fd5b8880fd5b8780fd5b8490346102045781600319360112610204577f00000000000000000000000000000000000000000000000000000000000000006001600160a01b03168152602090f35b600435906001600160a01b03821682036101d757565b9181601f840112156101d75782359167ffffffffffffffff83116101d757602083818601950101116101d757565b6000546001600160a01b0316330361095b57565b60405163118cdaa760e01b8152336004820152602490fd5b35906001600160a01b03821682036101d757565b90601f8019910116810190811067ffffffffffffffff8211176109a957604052565b634e487b7160e01b600052604160045260246000fd5b908160209103126101d7575180151581036101d75790565b9293600080516020610e30833981519152608060405160408152601760408201527f5374617274696e67207377617020657865637574696f6e0000000000000000006060820152856020820152a160405163095ea7b360e01b81526001600160a01b03868116600483015260006024830181905260209183916044918391908a165af18015610d9b57610e10575b5060405163095ea7b360e01b81526001600160a01b0386166004820152602481018490526020818060448101038160006001600160a01b038a165af18015610d9b57610df1575b50600080516020610e30833981519152608060405160408152601760408201527f526f7574657220617070726f76616c206772616e7465640000000000000000006060820152856020820152a160405163f7729d4360e01b81526001600160a01b038581166004830152838116602483015262ffffff8316604483015260648201859052600060848301819052919691602091889160a49183919086165af1958615610d9b57600096610dbd575b50600080516020610e308339815191526080604051604081526013604082015272115e1c1958dd195908185b5bdd5b9d081bdd5d606a1b6060820152886020820152a1606386029580870460631490151715610da757600080516020610e308339815191526080604051604081526012604082015271135a5b9a5b5d5b48185b5bdd5b9d081bdd5d60721b6060820152606489046020820152a161012c42014211610da757604051958661010081011067ffffffffffffffff610100890111176109a9578660646101049262ffffff60209661010060009c0160405260018060a01b038b16855260018060a01b0389168886015216604084015230606084015261012c420160808401528760a08401520460c08201528760e0820152604051978893849263414bf38960e01b845260018060a01b03815116600485015260018060a01b038782015116602485015262ffffff604082015116604485015260018060a01b0360608201511660648501526080810151608485015260a081015160a485015260c081015160c485015260e060018060a01b039101511660e484015260018060a01b03165af1938415610d9b57600094610d60575b50604080516001600160a01b039485168152939091166020840152820152606081018290527fdd36740e2a012d93061a0d99eaa9107860955de4e90027d3cf465a055026c40790608090a190565b91929093506020823d602011610d93575b81610d7e60209383610987565b810103126101d7579051929091906080610d12565b3d9150610d71565b6040513d6000823e3d90fd5b634e487b7160e01b600052601160045260246000fd5b9095506020813d602011610de9575b81610dd960209383610987565b810103126101d757519438610b5a565b3d9150610dcc565b610e099060203d6020116101c7576101bb8183610987565b5038610aac565b610e289060203d6020116101c7576101bb8183610987565b5038610a6556fef6ff2ad7fc16bda2a7d32462729431bce3ebe9b75cc7c9b35a0adfbf7e7bb9e6a164736f6c6343000814000a","opcodes":"PUSH1 0xC0 DUP1 PUSH1 0x40 MSTORE CALLVALUE PUSH3 0x134 JUMPI PUSH1 0x4 PUSH1 0x20 PUSH3 0xFF1 DUP1 CODESIZE SUB DUP1 SWAP2 PUSH3 0x24 DUP3 DUP8 PUSH3 0x139 JUMP JUMPDEST DUP6 CODECOPY PUSH1 0x1 PUSH1 0x1 PUSH1 0xA0 SHL SUB SWAP4 DUP5 SWAP2 PUSH3 0x40 SWAP2 SWAP1 DUP2 ADD SWAP1 PUSH3 0x173 JUMP JUMPDEST AND DUP1 PUSH1 0x80 MSTORE PUSH1 0x40 MLOAD SWAP3 DUP4 DUP1 SWAP3 PUSH4 0x26B1D5F PUSH1 0xE0 SHL DUP3 MSTORE GAS STATICCALL DUP1 ISZERO PUSH3 0x128 JUMPI DUP3 SWAP2 PUSH1 0x0 SWAP2 PUSH3 0xF3 JUMPI JUMPDEST POP AND PUSH1 0xA0 MSTORE CALLER ISZERO PUSH3 0xDA JUMPI PUSH1 0x0 SLOAD CALLER PUSH1 0x1 DUP1 PUSH1 0xA0 SHL SUB NOT DUP3 AND OR PUSH1 0x0 SSTORE PUSH1 0x40 MLOAD SWAP2 CALLER SWAP2 AND PUSH32 0x8BE0079C531659141344CD1FD0A4F28419497F9722A3DAAFE3B4186F6B6457E0 PUSH1 0x0 DUP1 LOG3 PUSH2 0xE5C SWAP1 DUP2 PUSH3 0x195 DUP3 CODECOPY PUSH1 0x80 MLOAD DUP2 PUSH2 0x8D4 ADD MSTORE PUSH1 0xA0 MLOAD DUP2 DUP2 DUP2 PUSH2 0x21D ADD MSTORE PUSH2 0x475 ADD MSTORE RETURN JUMPDEST PUSH1 0x40 MLOAD PUSH4 0x1E4FBDF7 PUSH1 0xE0 SHL DUP2 MSTORE PUSH1 0x0 PUSH1 0x4 DUP3 ADD MSTORE PUSH1 0x24 SWAP1 REVERT JUMPDEST PUSH3 0x119 SWAP2 POP PUSH1 0x20 RETURNDATASIZE DUP2 GT PUSH3 0x120 JUMPI JUMPDEST PUSH3 0x110 DUP2 DUP4 PUSH3 0x139 JUMP JUMPDEST DUP2 ADD SWAP1 PUSH3 0x173 JUMP JUMPDEST CODESIZE PUSH3 0x6A JUMP JUMPDEST POP RETURNDATASIZE PUSH3 0x104 JUMP JUMPDEST PUSH1 0x40 MLOAD RETURNDATASIZE PUSH1 0x0 DUP3 RETURNDATACOPY RETURNDATASIZE SWAP1 REVERT JUMPDEST PUSH1 0x0 DUP1 REVERT JUMPDEST PUSH1 0x1F SWAP1 SWAP2 ADD PUSH1 0x1F NOT AND DUP2 ADD SWAP1 PUSH1 0x1 PUSH1 0x1 PUSH1 0x40 SHL SUB DUP3 GT SWAP1 DUP3 LT OR PUSH3 0x15D JUMPI PUSH1 0x40 MSTORE JUMP JUMPDEST PUSH4 0x4E487B71 PUSH1 0xE0 SHL PUSH1 0x0 MSTORE PUSH1 0x41 PUSH1 0x4 MSTORE PUSH1 0x24 PUSH1 0x0 REVERT JUMPDEST SWAP1 DUP2 PUSH1 0x20 SWAP2 SUB SLT PUSH3 0x134 JUMPI MLOAD PUSH1 0x1 PUSH1 0x1 PUSH1 0xA0 SHL SUB DUP2 AND DUP2 SUB PUSH3 0x134 JUMPI SWAP1 JUMP INVALID PUSH1 0x80 PUSH1 0x40 DUP2 DUP2 MSTORE PUSH1 0x4 DUP1 CALLDATASIZE LT ISZERO PUSH2 0x15 JUMPI PUSH1 0x0 DUP1 REVERT JUMPDEST PUSH1 0x0 SWAP3 DUP4 CALLDATALOAD PUSH1 0xE0 SHR SWAP1 DUP2 PUSH4 0x542975C EQ PUSH2 0x8C0 JUMPI POP DUP1 PUSH4 0x1B11D0FF EQ PUSH2 0x570 JUMPI DUP1 PUSH4 0x5107D61E EQ PUSH2 0x3E1 JUMPI DUP1 PUSH4 0x51CFF8D9 EQ PUSH2 0x2A9 JUMPI DUP1 PUSH4 0x715018A6 EQ PUSH2 0x24C JUMPI DUP1 PUSH4 0x7535D246 EQ PUSH2 0x208 JUMPI DUP1 PUSH4 0x8DA5CB5B EQ PUSH2 0x1DC JUMPI DUP1 PUSH4 0xDA3E3397 EQ PUSH2 0x119 JUMPI PUSH4 0xF2FDE38B EQ PUSH2 0x86 JUMPI PUSH1 0x0 DUP1 REVERT JUMPDEST CALLVALUE PUSH2 0x115 JUMPI PUSH1 0x20 CALLDATASIZE PUSH1 0x3 NOT ADD SLT PUSH2 0x115 JUMPI PUSH2 0x9F PUSH2 0x903 JUMP JUMPDEST SWAP1 PUSH2 0xA8 PUSH2 0x947 JUMP JUMPDEST PUSH1 0x1 PUSH1 0x1 PUSH1 0xA0 SHL SUB SWAP2 DUP3 AND SWAP3 DUP4 ISZERO PUSH2 0xFF JUMPI POP POP PUSH1 0x0 SLOAD DUP3 PUSH12 0xFFFFFFFFFFFFFFFFFFFFFFFF PUSH1 0xA0 SHL DUP3 AND OR PUSH1 0x0 SSTORE AND PUSH32 0x8BE0079C531659141344CD1FD0A4F28419497F9722A3DAAFE3B4186F6B6457E0 PUSH1 0x0 DUP1 LOG3 DUP1 RETURN JUMPDEST MLOAD PUSH4 0x1E4FBDF7 PUSH1 0xE0 SHL DUP2 MSTORE SWAP1 DUP2 ADD DUP5 SWAP1 MSTORE PUSH1 0x24 SWAP1 REVERT JUMPDEST DUP3 DUP1 REVERT JUMPDEST POP SWAP1 CALLVALUE PUSH2 0x115 JUMPI PUSH1 0x60 CALLDATASIZE PUSH1 0x3 NOT ADD SLT PUSH2 0x115 JUMPI PUSH2 0x134 PUSH2 0x903 JUMP JUMPDEST PUSH1 0x24 CALLDATALOAD SWAP3 PUSH1 0x1 PUSH1 0x1 PUSH1 0xA0 SHL SUB SWAP2 DUP3 DUP6 AND DUP6 SUB PUSH2 0x1D7 JUMPI PUSH2 0x18E SWAP5 DUP7 PUSH1 0x20 SWAP5 PUSH2 0x15A PUSH2 0x947 JUMP JUMPDEST DUP7 MLOAD PUSH4 0x95EA7B3 PUSH1 0xE0 SHL DUP2 MSTORE PUSH1 0x1 PUSH1 0x1 PUSH1 0xA0 SHL SUB SWAP1 SWAP4 AND SWAP5 DUP4 ADD SWAP5 DUP6 MSTORE PUSH1 0x44 CALLDATALOAD PUSH1 0x20 DUP7 ADD MSTORE SWAP2 SWAP7 DUP8 SWAP5 DUP6 SWAP4 SWAP2 DUP5 SWAP2 PUSH1 0x40 ADD SWAP1 JUMP JUMPDEST SUB SWAP4 AND GAS CALL SWAP1 DUP2 ISZERO PUSH2 0x1CE JUMPI POP PUSH2 0x1A3 JUMPI POP DUP1 RETURN JUMPDEST PUSH2 0x1C3 SWAP1 PUSH1 0x20 RETURNDATASIZE DUP2 GT PUSH2 0x1C7 JUMPI JUMPDEST PUSH2 0x1BB DUP2 DUP4 PUSH2 0x987 JUMP JUMPDEST DUP2 ADD SWAP1 PUSH2 0x9BF JUMP JUMPDEST POP DUP1 RETURN JUMPDEST POP RETURNDATASIZE PUSH2 0x1B1 JUMP JUMPDEST MLOAD RETURNDATASIZE DUP5 DUP3 RETURNDATACOPY RETURNDATASIZE SWAP1 REVERT JUMPDEST PUSH1 0x0 DUP1 REVERT JUMPDEST POP POP CALLVALUE PUSH2 0x204 JUMPI DUP2 PUSH1 0x3 NOT CALLDATASIZE ADD SLT PUSH2 0x204 JUMPI SWAP1 SLOAD SWAP1 MLOAD PUSH1 0x1 PUSH1 0x1 PUSH1 0xA0 SHL SUB SWAP1 SWAP2 AND DUP2 MSTORE PUSH1 0x20 SWAP1 RETURN JUMPDEST POP DUP1 REVERT JUMPDEST POP POP CALLVALUE PUSH2 0x204 JUMPI DUP2 PUSH1 0x3 NOT CALLDATASIZE ADD SLT PUSH2 0x204 JUMPI MLOAD PUSH32 0x0 PUSH1 0x1 PUSH1 0x1 PUSH1 0xA0 SHL SUB AND DUP2 MSTORE PUSH1 0x20 SWAP1 RETURN JUMPDEST DUP4 CALLVALUE PUSH2 0x2A6 JUMPI DUP1 PUSH1 0x3 NOT CALLDATASIZE ADD SLT PUSH2 0x2A6 JUMPI PUSH2 0x265 PUSH2 0x947 JUMP JUMPDEST PUSH1 0x0 DUP1 SLOAD PUSH1 0x1 PUSH1 0x1 PUSH1 0xA0 SHL SUB NOT DUP2 AND DUP3 SSTORE PUSH1 0x1 PUSH1 0x1 PUSH1 0xA0 SHL SUB AND PUSH32 0x8BE0079C531659141344CD1FD0A4F28419497F9722A3DAAFE3B4186F6B6457E0 DUP3 DUP1 LOG3 DUP1 RETURN JUMPDEST DUP1 REVERT JUMPDEST POP SWAP2 SWAP1 CALLVALUE PUSH2 0x204 JUMPI PUSH1 0x20 SWAP1 DUP2 PUSH1 0x3 NOT CALLDATASIZE ADD SLT PUSH2 0x115 JUMPI PUSH2 0x2C7 PUSH2 0x903 JUMP JUMPDEST PUSH2 0x2CF PUSH2 0x947 JUMP JUMPDEST DUP2 MLOAD PUSH4 0x70A08231 PUSH1 0xE0 SHL DUP2 MSTORE ADDRESS DUP2 DUP8 ADD MSTORE PUSH1 0x1 PUSH1 0x1 PUSH1 0xA0 SHL SUB SWAP2 SWAP1 SWAP2 AND SWAP5 DUP4 DUP3 PUSH1 0x24 DUP2 DUP10 GAS STATICCALL SWAP2 DUP3 ISZERO PUSH2 0x3D7 JUMPI DUP6 SWAP3 PUSH2 0x3A8 JUMPI JUMPDEST POP DUP2 ISZERO PUSH2 0x36D JUMPI DUP3 MLOAD PUSH4 0xA9059CBB PUSH1 0xE0 SHL DUP2 MSTORE CALLER SWAP2 DUP2 ADD SWAP2 DUP3 MSTORE PUSH1 0x20 DUP3 ADD SWAP3 SWAP1 SWAP3 MSTORE SWAP1 SWAP2 SWAP1 DUP4 SWAP1 DUP4 SWAP1 DUP2 SWAP1 SUB PUSH1 0x40 ADD DUP2 DUP8 DUP10 GAS CALL SWAP1 DUP2 ISZERO PUSH2 0x364 JUMPI POP PUSH2 0x347 JUMPI DUP3 DUP1 RETURN JUMPDEST DUP2 PUSH2 0x35D SWAP3 SWAP1 RETURNDATASIZE LT PUSH2 0x1C7 JUMPI PUSH2 0x1BB DUP2 DUP4 PUSH2 0x987 JUMP JUMPDEST POP DUP2 DUP1 DUP3 DUP1 RETURN JUMPDEST MLOAD RETURNDATASIZE DUP6 DUP3 RETURNDATACOPY RETURNDATASIZE SWAP1 REVERT JUMPDEST DUP3 MLOAD PUSH3 0x461BCD PUSH1 0xE5 SHL DUP2 MSTORE SWAP1 DUP2 ADD DUP5 SWAP1 MSTORE PUSH1 0x15 PUSH1 0x24 DUP3 ADD MSTORE PUSH21 0x4E6F20746F6B656E7320746F207769746864726177 PUSH1 0x58 SHL PUSH1 0x44 DUP3 ADD MSTORE PUSH1 0x64 SWAP1 REVERT JUMPDEST SWAP1 SWAP2 POP DUP4 DUP2 DUP2 RETURNDATASIZE DUP4 GT PUSH2 0x3D0 JUMPI JUMPDEST PUSH2 0x3C0 DUP2 DUP4 PUSH2 0x987 JUMP JUMPDEST DUP2 ADD SUB SLT PUSH2 0x1D7 JUMPI MLOAD SWAP1 CODESIZE PUSH2 0x303 JUMP JUMPDEST POP RETURNDATASIZE PUSH2 0x3B6 JUMP JUMPDEST DUP4 MLOAD RETURNDATASIZE DUP8 DUP3 RETURNDATACOPY RETURNDATASIZE SWAP1 REVERT JUMPDEST POP SWAP1 CALLVALUE PUSH2 0x115 JUMPI PUSH1 0x60 CALLDATASIZE PUSH1 0x3 NOT ADD SLT PUSH2 0x115 JUMPI PUSH2 0x3FC PUSH2 0x903 JUMP JUMPDEST PUSH1 0x24 CALLDATALOAD SWAP3 SWAP1 PUSH8 0xFFFFFFFFFFFFFFFF SWAP1 PUSH1 0x44 CALLDATALOAD DUP3 DUP2 GT PUSH2 0x56C JUMPI PUSH2 0x422 SWAP1 CALLDATASIZE SWAP1 DUP6 ADD PUSH2 0x919 JUMP JUMPDEST SWAP1 SWAP2 DUP7 ISZERO PUSH2 0x529 JUMPI DUP6 MLOAD PUSH1 0x1 PUSH1 0x1 PUSH1 0xA0 SHL SUB DUP3 AND DUP2 MSTORE PUSH1 0x20 DUP2 ADD DUP9 SWAP1 MSTORE DUP9 SWAP4 SWAP3 SWAP2 SWAP1 PUSH32 0x36B2ACB66143C7D81ECE04083E3157526CAB9360D579ECD6ED68C9E7481123F1 SWAP1 PUSH1 0x40 SWAP1 LOG1 PUSH1 0x1 PUSH1 0x1 PUSH1 0xA0 SHL SUB SWAP3 PUSH32 0x0 DUP5 AND SWAP3 DUP4 EXTCODESIZE ISZERO PUSH2 0x525 JUMPI DUP8 DUP2 PUSH1 0xC4 SWAP3 DUP9 SWAP5 DUP13 MLOAD SWAP14 DUP15 SWAP10 DUP11 SWAP9 DUP10 SWAP7 PUSH4 0x10AC2DDF PUSH1 0xE2 SHL DUP9 MSTORE ADDRESS SWAP1 DUP9 ADD MSTORE AND PUSH1 0x24 DUP7 ADD MSTORE PUSH1 0x44 DUP6 ADD MSTORE PUSH1 0xA0 PUSH1 0x64 DUP6 ADD MSTORE DUP2 PUSH1 0xA4 DUP6 ADD MSTORE DUP5 DUP5 ADD CALLDATACOPY DUP4 DUP4 DUP3 DUP5 ADD ADD MSTORE DUP4 PUSH1 0x84 DUP4 ADD MSTORE PUSH1 0x1F DUP1 NOT SWAP2 ADD AND DUP2 ADD SUB ADD SWAP3 GAS CALL DUP1 ISZERO PUSH2 0x3D7 JUMPI PUSH2 0x502 JUMPI DUP5 DUP1 RETURN JUMPDEST DUP4 GT PUSH2 0x512 JUMPI POP MSTORE CODESIZE DUP1 DUP1 DUP1 DUP5 DUP1 RETURN JUMPDEST PUSH4 0x4E487B71 PUSH1 0xE0 SHL DUP5 MSTORE PUSH1 0x41 SWAP1 MSTORE PUSH1 0x24 DUP4 REVERT JUMPDEST DUP6 DUP1 REVERT JUMPDEST DUP6 MLOAD PUSH3 0x461BCD PUSH1 0xE5 SHL DUP2 MSTORE PUSH1 0x20 DUP2 DUP8 ADD MSTORE PUSH1 0x1D PUSH1 0x24 DUP3 ADD MSTORE PUSH32 0x416D6F756E74206D7573742062652067726561746572207468616E2030000000 PUSH1 0x44 DUP3 ADD MSTORE PUSH1 0x64 SWAP1 REVERT JUMPDEST DUP7 DUP1 REVERT JUMPDEST POP SWAP1 CALLVALUE PUSH2 0x115 JUMPI PUSH1 0xA0 CALLDATASIZE PUSH1 0x3 NOT ADD SLT PUSH2 0x115 JUMPI PUSH2 0x58B PUSH2 0x903 JUMP JUMPDEST PUSH1 0x1 PUSH1 0x1 PUSH1 0xA0 SHL SUB SWAP3 PUSH1 0x24 CALLDATALOAD SWAP2 SWAP1 PUSH1 0x44 CALLDATALOAD SWAP1 PUSH1 0x64 CALLDATALOAD DUP7 DUP2 AND SUB PUSH2 0x56C JUMPI PUSH1 0x84 CALLDATALOAD PUSH8 0xFFFFFFFFFFFFFFFF DUP2 GT PUSH2 0x8BC JUMPI PUSH2 0x5C7 SWAP1 CALLDATASIZE SWAP1 DUP4 ADD PUSH2 0x919 JUMP JUMPDEST DUP2 SWAP1 PUSH1 0x60 SWAP3 DUP4 SWAP2 DUP2 ADD SUB SLT PUSH2 0x8B8 JUMPI PUSH2 0x5DF DUP2 PUSH2 0x973 JUMP JUMPDEST SWAP1 PUSH1 0x20 SWAP9 DUP9 PUSH2 0x5EF DUP12 DUP5 ADD PUSH2 0x973 JUMP JUMPDEST SWAP3 ADD CALLDATALOAD SWAP2 PUSH3 0xFFFFFF DUP4 AND SWAP7 DUP8 DUP5 SUB PUSH2 0x8B4 JUMPI DUP12 SWAP8 PUSH32 0x1343998C8D6022EB07EB12064B021C43C49447832D6F53815B05B4B8F43A9CED DUP8 DUP12 DUP5 DUP16 DUP16 DUP10 DUP1 PUSH1 0x80 SWAP14 AND SWAP10 AND SWAP10 DUP3 MLOAD SWAP5 AND SWAP15 DUP16 DUP6 MSTORE DUP5 ADD MSTORE DUP3 ADD MSTORE LOG1 DUP12 MLOAD SWAP1 DUP13 DUP3 MSTORE PUSH1 0x3 DUP14 DUP4 ADD MSTORE PUSH3 0x466565 PUSH1 0xE8 SHL DUP9 DUP4 ADD MSTORE DUP14 DUP3 ADD MSTORE PUSH1 0x0 DUP1 MLOAD PUSH1 0x20 PUSH2 0xE30 DUP4 CODECOPY DUP2 MLOAD SWAP2 MSTORE SWAP6 DUP7 SWAP2 LOG1 DUP10 ADD SWAP9 DUP10 DUP2 GT PUSH2 0x8A1 JUMPI SWAP3 DUP3 PUSH17 0x119A5C9CDD081CDDD85C081C995CDD5B1D PUSH1 0x7A SHL DUP11 PUSH2 0x71F SWAP5 DUP16 SWAP9 DUP16 DUP16 SWAP12 SWAP11 SWAP1 DUP12 PUSH1 0x80 SWAP11 SWAP3 PUSH2 0x705 DUP16 DUP14 SWAP6 DUP8 SWAP16 DUP9 DUP9 DUP16 SWAP5 DUP3 DUP3 DUP12 MLOAD DUP13 DUP2 MSTORE PUSH1 0xE DUP14 DUP3 ADD MSTORE PUSH14 0x416D6F756E7420746F207377617 PUSH1 0x94 SHL DUP13 DUP3 ADD MSTORE DUP7 DUP12 DUP3 ADD MSTORE LOG1 DUP10 MLOAD SWAP1 DUP11 DUP3 MSTORE PUSH1 0xF DUP12 DUP4 ADD MSTORE PUSH15 0x416D6F756E7420746F207265706179 PUSH1 0x88 SHL DUP11 DUP4 ADD MSTORE DUP9 DUP3 ADD MSTORE LOG1 DUP10 DUP12 PUSH2 0x9D7 JUMP JUMPDEST SWAP8 DUP9 SWAP3 PUSH1 0x11 DUP6 MLOAD SWAP6 DUP1 DUP8 MSTORE DUP7 ADD MSTORE DUP5 ADD MSTORE DUP3 ADD MSTORE LOG1 PUSH2 0x9D7 JUMP JUMPDEST SWAP3 PUSH12 0x119A5B985B08185B5BDD5B9D PUSH1 0xA2 SHL DUP11 MLOAD SWAP2 DUP12 DUP4 MSTORE PUSH1 0xC DUP13 DUP5 ADD MSTORE DUP3 ADD MSTORE DUP4 DUP12 DUP3 ADD MSTORE LOG1 LT PUSH2 0x84F JUMPI DUP5 MLOAD PUSH4 0x95EA7B3 PUSH1 0xE0 SHL DUP1 DUP3 MSTORE CALLER DUP4 DUP4 ADD MSTORE PUSH1 0x24 DUP3 ADD DUP10 SWAP1 MSTORE DUP9 SWAP2 DUP9 DUP2 PUSH1 0x44 DUP2 DUP7 DUP10 GAS CALL DUP1 ISZERO PUSH2 0x845 JUMPI SWAP3 PUSH2 0x7A9 SWAP6 SWAP3 DUP11 SWAP6 SWAP3 DUP10 SWAP6 PUSH2 0x828 JUMPI JUMPDEST POP DUP10 MLOAD SWAP1 DUP2 MSTORE CALLER SWAP3 DUP2 ADD SWAP3 DUP4 MSTORE PUSH1 0x20 DUP4 ADD SWAP5 SWAP1 SWAP5 MSTORE SWAP3 SWAP5 DUP6 SWAP4 DUP5 SWAP3 SWAP1 SWAP2 DUP4 SWAP2 PUSH1 0x40 ADD SWAP1 JUMP JUMPDEST SUB SWAP3 GAS CALL DUP1 ISZERO PUSH2 0x81E JUMPI PUSH32 0x314562D4D0DD0340FA30931E299DD755C5C2C14596A1BB6623310AD16348334A SWAP5 SWAP6 SWAP7 POP PUSH2 0x801 JUMPI JUMPDEST POP DUP4 MLOAD PUSH1 0x1 PUSH1 0x1 PUSH1 0xA0 SHL SUB SWAP2 SWAP1 SWAP2 AND DUP2 MSTORE PUSH1 0x20 DUP2 ADD SWAP2 SWAP1 SWAP2 MSTORE PUSH1 0x40 SWAP1 LOG1 MLOAD PUSH1 0x1 DUP2 MSTORE RETURN JUMPDEST PUSH2 0x817 SWAP1 DUP7 RETURNDATASIZE DUP9 GT PUSH2 0x1C7 JUMPI PUSH2 0x1BB DUP2 DUP4 PUSH2 0x987 JUMP JUMPDEST POP CODESIZE PUSH2 0x7DD JUMP JUMPDEST DUP5 MLOAD RETURNDATASIZE DUP9 DUP3 RETURNDATACOPY RETURNDATASIZE SWAP1 REVERT JUMPDEST PUSH2 0x83E SWAP1 DUP8 RETURNDATASIZE DUP10 GT PUSH2 0x1C7 JUMPI PUSH2 0x1BB DUP2 DUP4 PUSH2 0x987 JUMP JUMPDEST POP CODESIZE PUSH2 0x784 JUMP JUMPDEST DUP9 MLOAD RETURNDATASIZE DUP6 DUP3 RETURNDATACOPY RETURNDATASIZE SWAP1 REVERT JUMPDEST DUP5 MLOAD PUSH3 0x461BCD PUSH1 0xE5 SHL DUP2 MSTORE SWAP1 DUP2 ADD DUP7 SWAP1 MSTORE PUSH1 0x26 PUSH1 0x24 DUP3 ADD MSTORE PUSH32 0x496E73756666696369656E742066756E647320746F20726570617920666C6173 PUSH1 0x44 DUP3 ADD MSTORE PUSH6 0x34103637B0B7 PUSH1 0xD1 SHL PUSH1 0x64 DUP3 ADD MSTORE PUSH1 0x84 SWAP1 REVERT JUMPDEST PUSH4 0x4E487B71 PUSH1 0xE0 SHL DUP14 MSTORE PUSH1 0x11 DUP8 MSTORE PUSH1 0x24 DUP14 REVERT JUMPDEST DUP13 DUP1 REVERT JUMPDEST DUP9 DUP1 REVERT JUMPDEST DUP8 DUP1 REVERT JUMPDEST DUP5 SWAP1 CALLVALUE PUSH2 0x204 JUMPI DUP2 PUSH1 0x3 NOT CALLDATASIZE ADD SLT PUSH2 0x204 JUMPI PUSH32 0x0 PUSH1 0x1 PUSH1 0x1 PUSH1 0xA0 SHL SUB AND DUP2 MSTORE PUSH1 0x20 SWAP1 RETURN JUMPDEST PUSH1 0x4 CALLDATALOAD SWAP1 PUSH1 0x1 PUSH1 0x1 PUSH1 0xA0 SHL SUB DUP3 AND DUP3 SUB PUSH2 0x1D7 JUMPI JUMP JUMPDEST SWAP2 DUP2 PUSH1 0x1F DUP5 ADD SLT ISZERO PUSH2 0x1D7 JUMPI DUP3 CALLDATALOAD SWAP2 PUSH8 0xFFFFFFFFFFFFFFFF DUP4 GT PUSH2 0x1D7 JUMPI PUSH1 0x20 DUP4 DUP2 DUP7 ADD SWAP6 ADD ADD GT PUSH2 0x1D7 JUMPI JUMP JUMPDEST PUSH1 0x0 SLOAD PUSH1 0x1 PUSH1 0x1 PUSH1 0xA0 SHL SUB AND CALLER SUB PUSH2 0x95B JUMPI JUMP JUMPDEST PUSH1 0x40 MLOAD PUSH4 0x118CDAA7 PUSH1 0xE0 SHL DUP2 MSTORE CALLER PUSH1 0x4 DUP3 ADD MSTORE PUSH1 0x24 SWAP1 REVERT JUMPDEST CALLDATALOAD SWAP1 PUSH1 0x1 PUSH1 0x1 PUSH1 0xA0 SHL SUB DUP3 AND DUP3 SUB PUSH2 0x1D7 JUMPI JUMP JUMPDEST SWAP1 PUSH1 0x1F DUP1 NOT SWAP2 ADD AND DUP2 ADD SWAP1 DUP2 LT PUSH8 0xFFFFFFFFFFFFFFFF DUP3 GT OR PUSH2 0x9A9 JUMPI PUSH1 0x40 MSTORE JUMP JUMPDEST PUSH4 0x4E487B71 PUSH1 0xE0 SHL PUSH1 0x0 MSTORE PUSH1 0x41 PUSH1 0x4 MSTORE PUSH1 0x24 PUSH1 0x0 REVERT JUMPDEST SWAP1 DUP2 PUSH1 0x20 SWAP2 SUB SLT PUSH2 0x1D7 JUMPI MLOAD DUP1 ISZERO ISZERO DUP2 SUB PUSH2 0x1D7 JUMPI SWAP1 JUMP JUMPDEST SWAP3 SWAP4 PUSH1 0x0 DUP1 MLOAD PUSH1 0x20 PUSH2 0xE30 DUP4 CODECOPY DUP2 MLOAD SWAP2 MSTORE PUSH1 0x80 PUSH1 0x40 MLOAD PUSH1 0x40 DUP2 MSTORE PUSH1 0x17 PUSH1 0x40 DUP3 ADD MSTORE PUSH32 0x5374617274696E67207377617020657865637574696F6E000000000000000000 PUSH1 0x60 DUP3 ADD MSTORE DUP6 PUSH1 0x20 DUP3 ADD MSTORE LOG1 PUSH1 0x40 MLOAD PUSH4 0x95EA7B3 PUSH1 0xE0 SHL DUP2 MSTORE PUSH1 0x1 PUSH1 0x1 PUSH1 0xA0 SHL SUB DUP7 DUP2 AND PUSH1 0x4 DUP4 ADD MSTORE PUSH1 0x0 PUSH1 0x24 DUP4 ADD DUP2 SWAP1 MSTORE PUSH1 0x20 SWAP2 DUP4 SWAP2 PUSH1 0x44 SWAP2 DUP4 SWAP2 SWAP1 DUP11 AND GAS CALL DUP1 ISZERO PUSH2 0xD9B JUMPI PUSH2 0xE10 JUMPI JUMPDEST POP PUSH1 0x40 MLOAD PUSH4 0x95EA7B3 PUSH1 0xE0 SHL DUP2 MSTORE PUSH1 0x1 PUSH1 0x1 PUSH1 0xA0 SHL SUB DUP7 AND PUSH1 0x4 DUP3 ADD MSTORE PUSH1 0x24 DUP2 ADD DUP5 SWAP1 MSTORE PUSH1 0x20 DUP2 DUP1 PUSH1 0x44 DUP2 ADD SUB DUP2 PUSH1 0x0 PUSH1 0x1 PUSH1 0x1 PUSH1 0xA0 SHL SUB DUP11 AND GAS CALL DUP1 ISZERO PUSH2 0xD9B JUMPI PUSH2 0xDF1 JUMPI JUMPDEST POP PUSH1 0x0 DUP1 MLOAD PUSH1 0x20 PUSH2 0xE30 DUP4 CODECOPY DUP2 MLOAD SWAP2 MSTORE PUSH1 0x80 PUSH1 0x40 MLOAD PUSH1 0x40 DUP2 MSTORE PUSH1 0x17 PUSH1 0x40 DUP3 ADD MSTORE PUSH32 0x526F7574657220617070726F76616C206772616E746564000000000000000000 PUSH1 0x60 DUP3 ADD MSTORE DUP6 PUSH1 0x20 DUP3 ADD MSTORE LOG1 PUSH1 0x40 MLOAD PUSH4 0xF7729D43 PUSH1 0xE0 SHL DUP2 MSTORE PUSH1 0x1 PUSH1 0x1 PUSH1 0xA0 SHL SUB DUP6 DUP2 AND PUSH1 0x4 DUP4 ADD MSTORE DUP4 DUP2 AND PUSH1 0x24 DUP4 ADD MSTORE PUSH3 0xFFFFFF DUP4 AND PUSH1 0x44 DUP4 ADD MSTORE PUSH1 0x64 DUP3 ADD DUP6 SWAP1 MSTORE PUSH1 0x0 PUSH1 0x84 DUP4 ADD DUP2 SWAP1 MSTORE SWAP2 SWAP7 SWAP2 PUSH1 0x20 SWAP2 DUP9 SWAP2 PUSH1 0xA4 SWAP2 DUP4 SWAP2 SWAP1 DUP7 AND GAS CALL SWAP6 DUP7 ISZERO PUSH2 0xD9B JUMPI PUSH1 0x0 SWAP7 PUSH2 0xDBD JUMPI JUMPDEST POP PUSH1 0x0 DUP1 MLOAD PUSH1 0x20 PUSH2 0xE30 DUP4 CODECOPY DUP2 MLOAD SWAP2 MSTORE PUSH1 0x80 PUSH1 0x40 MLOAD PUSH1 0x40 DUP2 MSTORE PUSH1 0x13 PUSH1 0x40 DUP3 ADD MSTORE PUSH19 0x115E1C1958DD195908185B5BDD5B9D081BDD5D PUSH1 0x6A SHL PUSH1 0x60 DUP3 ADD MSTORE DUP9 PUSH1 0x20 DUP3 ADD MSTORE LOG1 PUSH1 0x63 DUP7 MUL SWAP6 DUP1 DUP8 DIV PUSH1 0x63 EQ SWAP1 ISZERO OR ISZERO PUSH2 0xDA7 JUMPI PUSH1 0x0 DUP1 MLOAD PUSH1 0x20 PUSH2 0xE30 DUP4 CODECOPY DUP2 MLOAD SWAP2 MSTORE PUSH1 0x80 PUSH1 0x40 MLOAD PUSH1 0x40 DUP2 MSTORE PUSH1 0x12 PUSH1 0x40 DUP3 ADD MSTORE PUSH18 0x135A5B9A5B5D5B48185B5BDD5B9D081BDD5D PUSH1 0x72 SHL PUSH1 0x60 DUP3 ADD MSTORE PUSH1 0x64 DUP10 DIV PUSH1 0x20 DUP3 ADD MSTORE LOG1 PUSH2 0x12C TIMESTAMP ADD TIMESTAMP GT PUSH2 0xDA7 JUMPI PUSH1 0x40 MLOAD SWAP6 DUP7 PUSH2 0x100 DUP2 ADD LT PUSH8 0xFFFFFFFFFFFFFFFF PUSH2 0x100 DUP10 ADD GT OR PUSH2 0x9A9 JUMPI DUP7 PUSH1 0x64 PUSH2 0x104 SWAP3 PUSH3 0xFFFFFF PUSH1 0x20 SWAP7 PUSH2 0x100 PUSH1 0x0 SWAP13 ADD PUSH1 0x40 MSTORE PUSH1 0x1 DUP1 PUSH1 0xA0 SHL SUB DUP12 AND DUP6 MSTORE PUSH1 0x1 DUP1 PUSH1 0xA0 SHL SUB DUP10 AND DUP9 DUP7 ADD MSTORE AND PUSH1 0x40 DUP5 ADD MSTORE ADDRESS PUSH1 0x60 DUP5 ADD MSTORE PUSH2 0x12C TIMESTAMP ADD PUSH1 0x80 DUP5 ADD MSTORE DUP8 PUSH1 0xA0 DUP5 ADD MSTORE DIV PUSH1 0xC0 DUP3 ADD MSTORE DUP8 PUSH1 0xE0 DUP3 ADD MSTORE PUSH1 0x40 MLOAD SWAP8 DUP9 SWAP4 DUP5 SWAP3 PUSH4 0x414BF389 PUSH1 0xE0 SHL DUP5 MSTORE PUSH1 0x1 DUP1 PUSH1 0xA0 SHL SUB DUP2 MLOAD AND PUSH1 0x4 DUP6 ADD MSTORE PUSH1 0x1 DUP1 PUSH1 0xA0 SHL SUB DUP8 DUP3 ADD MLOAD AND PUSH1 0x24 DUP6 ADD MSTORE PUSH3 0xFFFFFF PUSH1 0x40 DUP3 ADD MLOAD AND PUSH1 0x44 DUP6 ADD MSTORE PUSH1 0x1 DUP1 PUSH1 0xA0 SHL SUB PUSH1 0x60 DUP3 ADD MLOAD AND PUSH1 0x64 DUP6 ADD MSTORE PUSH1 0x80 DUP2 ADD MLOAD PUSH1 0x84 DUP6 ADD MSTORE PUSH1 0xA0 DUP2 ADD MLOAD PUSH1 0xA4 DUP6 ADD MSTORE PUSH1 0xC0 DUP2 ADD MLOAD PUSH1 0xC4 DUP6 ADD MSTORE PUSH1 0xE0 PUSH1 0x1 DUP1 PUSH1 0xA0 SHL SUB SWAP2 ADD MLOAD AND PUSH1 0xE4 DUP5 ADD MSTORE PUSH1 0x1 DUP1 PUSH1 0xA0 SHL SUB AND GAS CALL SWAP4 DUP5 ISZERO PUSH2 0xD9B JUMPI PUSH1 0x0 SWAP5 PUSH2 0xD60 JUMPI JUMPDEST POP PUSH1 0x40 DUP1 MLOAD PUSH1 0x1 PUSH1 0x1 PUSH1 0xA0 SHL SUB SWAP5 DUP6 AND DUP2 MSTORE SWAP4 SWAP1 SWAP2 AND PUSH1 0x20 DUP5 ADD MSTORE DUP3 ADD MSTORE PUSH1 0x60 DUP2 ADD DUP3 SWAP1 MSTORE PUSH32 0xDD36740E2A012D93061A0D99EAA9107860955DE4E90027D3CF465A055026C407 SWAP1 PUSH1 0x80 SWAP1 LOG1 SWAP1 JUMP JUMPDEST SWAP2 SWAP3 SWAP1 SWAP4 POP PUSH1 0x20 DUP3 RETURNDATASIZE PUSH1 0x20 GT PUSH2 0xD93 JUMPI JUMPDEST DUP2 PUSH2 0xD7E PUSH1 0x20 SWAP4 DUP4 PUSH2 0x987 JUMP JUMPDEST DUP2 ADD SUB SLT PUSH2 0x1D7 JUMPI SWAP1 MLOAD SWAP3 SWAP1 SWAP2 SWAP1 PUSH1 0x80 PUSH2 0xD12 JUMP JUMPDEST RETURNDATASIZE SWAP2 POP PUSH2 0xD71 JUMP JUMPDEST PUSH1 0x40 MLOAD RETURNDATASIZE PUSH1 0x0 DUP3 RETURNDATACOPY RETURNDATASIZE SWAP1 REVERT JUMPDEST PUSH4 0x4E487B71 PUSH1 0xE0 SHL PUSH1 0x0 MSTORE PUSH1 0x11 PUSH1 0x4 MSTORE PUSH1 0x24 PUSH1 0x0 REVERT JUMPDEST SWAP1 SWAP6 POP PUSH1 0x20 DUP2 RETURNDATASIZE PUSH1 0x20 GT PUSH2 0xDE9 JUMPI JUMPDEST DUP2 PUSH2 0xDD9 PUSH1 0x20 SWAP4 DUP4 PUSH2 0x987 JUMP JUMPDEST DUP2 ADD SUB SLT PUSH2 0x1D7 JUMPI MLOAD SWAP5 CODESIZE PUSH2 0xB5A JUMP JUMPDEST RETURNDATASIZE SWAP2 POP PUSH2 0xDCC JUMP JUMPDEST PUSH2 0xE09 SWAP1 PUSH1 0x20 RETURNDATASIZE PUSH1 0x20 GT PUSH2 0x1C7 JUMPI PUSH2 0x1BB DUP2 DUP4 PUSH2 0x987 JUMP JUMPDEST POP CODESIZE PUSH2 0xAAC JUMP JUMPDEST PUSH2 0xE28 SWAP1 PUSH1 0x20 RETURNDATASIZE PUSH1 0x20 GT PUSH2 0x1C7 JUMPI PUSH2 0x1BB DUP2 DUP4 PUSH2 0x987 JUMP JUMPDEST POP CODESIZE PUSH2 0xA65 JUMP INVALID 0xF6 SELFDESTRUCT 0x2A 0xD7 0xFC AND 0xBD LOG2 0xA7 0xD3 0x24 PUSH3 0x729431 0xBC 0xE3 0xEB 0xE9 0xB7 0x5C 0xC7 0xC9 0xB3 GAS EXP 0xDF 0xBF PUSH31 0x7BB9E6A164736F6C6343000814000A00000000000000000000000000000000 "},"methodIdentifiers":{"ADDRESSES_PROVIDER()":"0542975c","POOL()":"7535d246","approveToken(address,address,uint256)":"da3e3397","executeOperation(address,uint256,uint256,address,bytes)":"1b11d0ff","owner()":"8da5cb5b","renounceOwnership()":"715018a6","requestFlashLoan(address,uint256,bytes)":"5107d61e","transferOwnership(address)":"f2fde38b","withdraw(address)":"51cff8d9"}}}}}