{
  "_format": "hh-sol-artifact-1",
  "contractName": "Flashloan",
  "sourceName": "contracts/Flashloan.sol",
  "abi": [
    {
      "inputs": [
        {
          "internalType": "contract IPoolAddressesProvider",
          "name": "_addressProvider",
          "type": "address"
        }
      ],
      "stateMutability": "nonpayable",
      "type": "constructor"
    },
    {
      "inputs": [],
      "name": "DeadlineExpired",
      "type": "error"
    },
    {
      "inputs": [],
      "name": "FlashLoanFailed",
      "type": "error"
    },
    {
      "inputs": [
        {
          "internalType": "uint256",
          "name": "available",
          "type": "uint256"
        },
        {
          "internalType": "uint256",
          "name": "required",
          "type": "uint256"
        }
      ],
      "name": "InsufficientBalance",
      "type": "error"
    },
    {
      "inputs": [],
      "name": "InvalidAddress",
      "type": "error"
    },
    {
      "inputs": [],
      "name": "InvalidParameters",
      "type": "error"
    },
    {
      "inputs": [
        {
          "internalType": "string",
          "name": "reason",
          "type": "string"
        }
      ],
      "name": "SwapFailed",
      "type": "error"
    },
    {
      "anonymous": false,
      "inputs": [
        {
          "indexed": true,
          "internalType": "address",
          "name": "token",
          "type": "address"
        },
        {
          "indexed": true,
          "internalType": "address",
          "name": "recipient",
          "type": "address"
        },
        {
          "indexed": false,
          "internalType": "uint256",
          "name": "amount",
          "type": "uint256"
        }
      ],
      "name": "EmergencyTokenRecovery",
      "type": "event"
    },
    {
      "anonymous": false,
      "inputs": [
        {
          "indexed": true,
          "internalType": "address",
          "name": "asset",
          "type": "address"
        },
        {
          "indexed": false,
          "internalType": "uint256",
          "name": "amount",
          "type": "uint256"
        },
        {
          "indexed": false,
          "internalType": "uint256",
          "name": "fee",
          "type": "uint256"
        },
        {
          "indexed": false,
          "internalType": "address",
          "name": "initiator",
          "type": "address"
        }
      ],
      "name": "FlashLoanExecuted",
      "type": "event"
    },
    {
      "anonymous": false,
      "inputs": [
        {
          "indexed": true,
          "internalType": "address",
          "name": "previousOwner",
          "type": "address"
        },
        {
          "indexed": true,
          "internalType": "address",
          "name": "newOwner",
          "type": "address"
        }
      ],
      "name": "OwnershipTransferred",
      "type": "event"
    },
    {
      "anonymous": false,
      "inputs": [
        {
          "indexed": false,
          "internalType": "address",
          "name": "account",
          "type": "address"
        }
      ],
      "name": "Paused",
      "type": "event"
    },
    {
      "anonymous": false,
      "inputs": [
        {
          "indexed": true,
          "internalType": "address",
          "name": "token0",
          "type": "address"
        },
        {
          "indexed": true,
          "internalType": "address",
          "name": "token1",
          "type": "address"
        },
        {
          "indexed": false,
          "internalType": "uint256",
          "name": "amountIn",
          "type": "uint256"
        },
        {
          "indexed": false,
          "internalType": "uint256",
          "name": "amountOut",
          "type": "uint256"
        },
        {
          "indexed": false,
          "internalType": "address",
          "name": "router",
          "type": "address"
        }
      ],
      "name": "TradeExecuted",
      "type": "event"
    },
    {
      "anonymous": false,
      "inputs": [
        {
          "indexed": false,
          "internalType": "address",
          "name": "account",
          "type": "address"
        }
      ],
      "name": "Unpaused",
      "type": "event"
    },
    {
      "inputs": [],
      "name": "ADDRESSES_PROVIDER",
      "outputs": [
        {
          "internalType": "contract IPoolAddressesProvider",
          "name": "",
          "type": "address"
        }
      ],
      "stateMutability": "view",
      "type": "function"
    },
    {
      "inputs": [],
      "name": "ADDRESS_PROVIDER",
      "outputs": [
        {
          "internalType": "contract IPoolAddressesProvider",
          "name": "",
          "type": "address"
        }
      ],
      "stateMutability": "view",
      "type": "function"
    },
    {
      "inputs": [],
      "name": "LENDINGPOOL",
      "outputs": [
        {
          "internalType": "contract IPool",
          "name": "",
          "type": "address"
        }
      ],
      "stateMutability": "view",
      "type": "function"
    },
    {
      "inputs": [],
      "name": "POOL",
      "outputs": [
        {
          "internalType": "contract IPool",
          "name": "",
          "type": "address"
        }
      ],
      "stateMutability": "view",
      "type": "function"
    },
    {
      "inputs": [
        {
          "internalType": "bool",
          "name": "_isV2",
          "type": "bool"
        },
        {
          "internalType": "address",
          "name": "_router",
          "type": "address"
        },
        {
          "internalType": "address[]",
          "name": "_path",
          "type": "address[]"
        },
        {
          "internalType": "uint256",
          "name": "_amountIn",
          "type": "uint256"
        }
      ],
      "name": "_executeFirstTrade",
      "outputs": [
        {
          "internalType": "uint256",
          "name": "",
          "type": "uint256"
        }
      ],
      "stateMutability": "nonpayable",
      "type": "function"
    },
    {
      "inputs": [
        {
          "internalType": "bool",
          "name": "_isV2",
          "type": "bool"
        },
        {
          "internalType": "address",
          "name": "_router",
          "type": "address"
        },
        {
          "internalType": "address[]",
          "name": "_path",
          "type": "address[]"
        },
        {
          "internalType": "uint256",
          "name": "_amountIn",
          "type": "uint256"
        },
        {
          "internalType": "uint256",
          "name": "_minReturn",
          "type": "uint256"
        }
      ],
      "name": "_executeSecondTrade",
      "outputs": [
        {
          "internalType": "uint256",
          "name": "",
          "type": "uint256"
        }
      ],
      "stateMutability": "nonpayable",
      "type": "function"
    },
    {
      "inputs": [
        {
          "internalType": "address",
          "name": "_token",
          "type": "address"
        },
        {
          "internalType": "uint256",
          "name": "_amount",
          "type": "uint256"
        }
      ],
      "name": "emergencyTokenRecovery",
      "outputs": [],
      "stateMutability": "nonpayable",
      "type": "function"
    },
    {
      "inputs": [
        {
          "internalType": "address",
          "name": "_asset",
          "type": "address"
        },
        {
          "internalType": "uint256",
          "name": "_amount",
          "type": "uint256"
        },
        {
          "internalType": "uint256",
          "name": "_fee",
          "type": "uint256"
        },
        {
          "internalType": "address",
          "name": "_initiator",
          "type": "address"
        },
        {
          "internalType": "bytes",
          "name": "_params",
          "type": "bytes"
        }
      ],
      "name": "executeOperation",
      "outputs": [
        {
          "internalType": "bool",
          "name": "",
          "type": "bool"
        }
      ],
      "stateMutability": "nonpayable",
      "type": "function"
    },
    {
      "inputs": [
        {
          "internalType": "address",
          "name": "_token0",
          "type": "address"
        },
        {
          "internalType": "address",
          "name": "_token1",
          "type": "address"
        },
        {
          "internalType": "uint256",
          "name": "_flashAmount",
          "type": "uint256"
        },
        {
          "internalType": "address",
          "name": "_routerA",
          "type": "address"
        },
        {
          "internalType": "address",
          "name": "_routerB",
          "type": "address"
        },
        {
          "internalType": "bool[]",
          "name": "_routerVersions",
          "type": "bool[]"
        }
      ],
      "name": "executeTrade",
      "outputs": [],
      "stateMutability": "nonpayable",
      "type": "function"
    },
    {
      "inputs": [
        {
          "internalType": "address",
          "name": "_asset",
          "type": "address"
        },
        {
          "internalType": "uint256",
          "name": "_amount",
          "type": "uint256"
        },
        {
          "internalType": "bytes",
          "name": "_params",
          "type": "bytes"
        }
      ],
      "name": "flashLoanSimple",
      "outputs": [],
      "stateMutability": "nonpayable",
      "type": "function"
    },
    {
      "inputs": [],
      "name": "isLendingPoolAccessible",
      "outputs": [
        {
          "internalType": "uint128",
          "name": "",
          "type": "uint128"
        }
      ],
      "stateMutability": "view",
      "type": "function"
    },
    {
      "inputs": [],
      "name": "owner",
      "outputs": [
        {
          "internalType": "address",
          "name": "",
          "type": "address"
        }
      ],
      "stateMutability": "view",
      "type": "function"
    },
    {
      "inputs": [],
      "name": "paused",
      "outputs": [
        {
          "internalType": "bool",
          "name": "",
          "type": "bool"
        }
      ],
      "stateMutability": "view",
      "type": "function"
    },
    {
      "inputs": [],
      "name": "renounceOwnership",
      "outputs": [],
      "stateMutability": "nonpayable",
      "type": "function"
    },
    {
      "inputs": [
        {
          "internalType": "address",
          "name": "newOwner",
          "type": "address"
        }
      ],
      "name": "transferOwnership",
      "outputs": [],
      "stateMutability": "nonpayable",
      "type": "function"
    },
    {
      "inputs": [],
      "name": "withdrawETH",
      "outputs": [
        {
          "internalType": "bool",
          "name": "",
          "type": "bool"
        }
      ],
      "stateMutability": "payable",
      "type": "function"
    },
    {
      "inputs": [
        {
          "internalType": "address",
          "name": "_token",
          "type": "address"
        }
      ],
      "name": "withdrawToken",
      "outputs": [
        {
          "internalType": "bool",
          "name": "",
          "type": "bool"
        }
      ],
      "stateMutability": "payable",
      "type": "function"
    },
    {
      "stateMutability": "payable",
      "type": "receive"
    }
  ],
  "bytecode": "0x6101006040523480156200001257600080fd5b50604051620026b5380380620026b58339810160408190526200003591620001f0565b80806001600160a01b03166080816001600160a01b031681525050806001600160a01b031663026b1d5f6040518163ffffffff1660e01b8152600401602060405180830381865afa1580156200008f573d6000803e3d6000fd5b505050506040513d601f19601f82011682018060405250810190620000b59190620001f0565b6001600160a01b031660a05250620000cd3362000187565b600180556002805460ff191690556001600160a01b038116620001035760405163e6c4247b60e01b815260040160405180910390fd5b6001600160a01b03811660c08190526040805163026b1d5f60e01b8152905163026b1d5f916004808201926020929091908290030181865afa1580156200014e573d6000803e3d6000fd5b505050506040513d601f19601f82011682018060405250810190620001749190620001f0565b6001600160a01b031660e0525062000217565b600080546001600160a01b038381166001600160a01b0319831681178455604051919092169283917f8be0079c531659141344cd1fd0a4f28419497f9722a3daafe3b4186f6b6457e09190a35050565b6001600160a01b0381168114620001ed57600080fd5b50565b6000602082840312156200020357600080fd5b81516200021081620001d7565b9392505050565b60805160a05160c05160e05161244f6200026660003960008181610364015281816104780152818161058a01526106f4015260006101a2015260006102d701526000610151015261244f6000f3fe6080604052600436106101115760003560e01c806362671400116100a55780638da5cb5b11610074578063e086e5ec11610059578063e086e5ec1461034a578063e0aa1d4b14610352578063f2fde38b1461038657600080fd5b80638da5cb5b1461030c578063b49b0cb31461032a57600080fd5b80636267140014610290578063715018a6146102b05780637535d246146102c557806389476069146102f957600080fd5b8063300854cb116100e1578063300854cb146101f45780634cbb2730146102225780635c975abb146102585780635ee5cf601461027057600080fd5b8062666eea1461011d5780630542975c1461013f5780631848effa146101905780631b11d0ff146101c457600080fd5b3661011857005b600080fd5b34801561012957600080fd5b5061013d610138366004611b4d565b6103a6565b005b34801561014b57600080fd5b506101737f000000000000000000000000000000000000000000000000000000000000000081565b6040516001600160a01b0390911681526020015b60405180910390f35b34801561019c57600080fd5b506101737f000000000000000000000000000000000000000000000000000000000000000081565b3480156101d057600080fd5b506101e46101df366004611c02565b6104f1565b6040519015158152602001610187565b34801561020057600080fd5b5061021461020f366004611d58565b61069c565b604051908152602001610187565b34801561022e57600080fd5b506102376106f0565b6040516fffffffffffffffffffffffffffffffff9091168152602001610187565b34801561026457600080fd5b5060025460ff166101e4565b34801561027c57600080fd5b5061021461028b366004611dc2565b610779565b34801561029c57600080fd5b5061013d6102ab366004611e36565b6107dc565b3480156102bc57600080fd5b5061013d610a04565b3480156102d157600080fd5b506101737f000000000000000000000000000000000000000000000000000000000000000081565b6101e4610307366004611f00565b610a6a565b34801561031857600080fd5b506000546001600160a01b0316610173565b34801561033657600080fd5b5061013d610345366004611f24565b610c8d565b6101e4610ebd565b34801561035e57600080fd5b506101737f000000000000000000000000000000000000000000000000000000000000000081565b34801561039257600080fd5b5061013d6103a1366004611f00565b611033565b600260015414156103fe5760405162461bcd60e51b815260206004820152601f60248201527f5265656e7472616e637947756172643a207265656e7472616e742063616c6c0060448201526064015b60405180910390fd5b60026001556001600160a01b03831661042a5760405163e6c4247b60e01b815260040160405180910390fd5b8161044857604051630e52390960e41b815260040160405180910390fd5b6040517f42b0b77c0000000000000000000000000000000000000000000000000000000081526001600160a01b037f000000000000000000000000000000000000000000000000000000000000000016906342b0b77c906104b6903090879087908790600090600401611f9d565b600060405180830381600087803b1580156104d057600080fd5b505af11580156104e4573d6000803e3d6000fd5b5050600180555050505050565b6000600260015414156105465760405162461bcd60e51b815260206004820152601f60248201527f5265656e7472616e637947756172643a207265656e7472616e742063616c6c0060448201526064016103f5565b600260015560006105578484611115565b905060006105658789611fe5565b905061057182896111b3565b815160405163095ea7b360e01b81526001600160a01b037f000000000000000000000000000000000000000000000000000000000000000081166004830152602482018490529091169063095ea7b3906044016020604051808303816000875af11580156105e3573d6000803e3d6000fd5b505050506040513d601f19601f82011682018060405250810190610607919061200b565b61063d576040517f92111eb200000000000000000000000000000000000000000000000000000000815260040160405180910390fd5b60408051898152602081018990526001600160a01b03888116828401529151918b16917f8948cb279e2b25a978d80995145f80f83758505d108e832489199069f14c8b369181900360600190a250506001808055979650505050505050565b600084156106d85760006106b38585856000611489565b9050806001815181106106c8576106c8612028565b60200260200101519150506106e8565b6106e5848484600061177e565b90505b949350505050565b60007f00000000000000000000000000000000000000000000000000000000000000006001600160a01b031663074b2e436040518163ffffffff1660e01b8152600401602060405180830381865afa158015610750573d6000803e3d6000fd5b505050506040513d601f19601f82011682018060405250810190610774919061203e565b905090565b600080610787836001611fe5565b905086156107c357600061079d87878785611489565b9050806001815181106107b2576107b2612028565b6020026020010151925050506107d3565b6107cf8686868461177e565b9150505b95945050505050565b60025460ff161561082f5760405162461bcd60e51b815260206004820152601060248201527f5061757361626c653a207061757365640000000000000000000000000000000060448201526064016103f5565b600260015414156108825760405162461bcd60e51b815260206004820152601f60248201527f5265656e7472616e637947756172643a207265656e7472616e742063616c6c0060448201526064016103f5565b60026001556001600160a01b03871615806108a457506001600160a01b038616155b156108c25760405163e6c4247b60e01b815260040160405180910390fd5b6001600160a01b03841615806108df57506001600160a01b038316155b156108fd5760405163e6c4247b60e01b815260040160405180910390fd5b6002811461091e57604051630e52390960e41b815260040160405180910390fd5b8461093c57604051630e52390960e41b815260040160405180910390fd5b600087878787878787600081811061095657610956612028565b905060200201602081019061096b9190612070565b8888600181811061097e5761097e612028565b90506020020160208101906109939190612070565b604080516001600160a01b039889166020820152968816908701526060860194909452918516608085015290931660a083015291151560c082015290151560e08201526101000160405160208183030381529060405290506109f68887836103a6565b505060018055505050505050565b6000546001600160a01b03163314610a5e5760405162461bcd60e51b815260206004820181905260248201527f4f776e61626c653a2063616c6c6572206973206e6f7420746865206f776e657260448201526064016103f5565b610a686000611a8d565b565b600080546001600160a01b03163314610ac55760405162461bcd60e51b815260206004820181905260248201527f4f776e61626c653a2063616c6c6572206973206e6f7420746865206f776e657260448201526064016103f5565b60026001541415610b185760405162461bcd60e51b815260206004820152601f60248201527f5265656e7472616e637947756172643a207265656e7472616e742063616c6c0060448201526064016103f5565b60026001556040516370a0823160e01b81523060048201526000906001600160a01b038416906370a0823190602401602060405180830381865afa158015610b64573d6000803e3d6000fd5b505050506040513d601f19601f82011682018060405250810190610b88919061208d565b9050826001600160a01b031663a9059cbb610bab6000546001600160a01b031690565b6040517fffffffff0000000000000000000000000000000000000000000000000000000060e084901b1681526001600160a01b039091166004820152602481018490526044016020604051808303816000875af1158015610c10573d6000803e3d6000fd5b505050506040513d601f19601f82011682018060405250810190610c34919061200b565b610c8157604051634ecb9b6d60e01b815260206004820152601560248201527f546f6b656e207472616e73666572206661696c6564000000000000000000000060448201526064016103f5565b50506001808055919050565b6000546001600160a01b03163314610ce75760405162461bcd60e51b815260206004820181905260248201527f4f776e61626c653a2063616c6c6572206973206e6f7420746865206f776e657260448201526064016103f5565b60026001541415610d3a5760405162461bcd60e51b815260206004820152601f60248201527f5265656e7472616e637947756172643a207265656e7472616e742063616c6c0060448201526064016103f5565b60026001556001600160a01b038216610d665760405163e6c4247b60e01b815260040160405180910390fd5b816001600160a01b031663a9059cbb610d876000546001600160a01b031690565b6040517fffffffff0000000000000000000000000000000000000000000000000000000060e084901b1681526001600160a01b039091166004820152602481018490526044016020604051808303816000875af1158015610dec573d6000803e3d6000fd5b505050506040513d601f19601f82011682018060405250810190610e10919061200b565b610e5d57604051634ecb9b6d60e01b815260206004820152601960248201527f456d657267656e6379207265636f76657279206661696c65640000000000000060448201526064016103f5565b6000546001600160a01b03166001600160a01b0316826001600160a01b03167f238062e33e7062c4aeccb2acac43aecc0b1a1ca891a5bc84a689f2272cb39a4383604051610ead91815260200190565b60405180910390a3505060018055565b600080546001600160a01b03163314610f185760405162461bcd60e51b815260206004820181905260248201527f4f776e61626c653a2063616c6c6572206973206e6f7420746865206f776e657260448201526064016103f5565b60026001541415610f6b5760405162461bcd60e51b815260206004820152601f60248201527f5265656e7472616e637947756172643a207265656e7472616e742063616c6c0060448201526064016103f5565b6002600155476000610f856000546001600160a01b031690565b6001600160a01b03168260405160006040518083038185875af1925050503d8060008114610fcf576040519150601f19603f3d011682016040523d82523d6000602084013e610fd4565b606091505b505090508061102657604051634ecb9b6d60e01b815260206004820152601360248201527f455448207472616e73666572206661696c65640000000000000000000000000060448201526064016103f5565b6001925050506001805590565b6000546001600160a01b0316331461108d5760405162461bcd60e51b815260206004820181905260248201527f4f776e61626c653a2063616c6c6572206973206e6f7420746865206f776e657260448201526064016103f5565b6001600160a01b0381166111095760405162461bcd60e51b815260206004820152602660248201527f4f776e61626c653a206e6577206f776e657220697320746865207a65726f206160448201527f646472657373000000000000000000000000000000000000000000000000000060648201526084016103f5565b61111281611a8d565b50565b6040805160e081018252600080825260208201819052918101829052606081018290526080810182905260a0810182905260c08101829052908080808080806111608a8a018b6120a6565b6040805160e0810182526001600160a01b03988916815296881660208801528601949094529185166060850152909316608083015291151560a082015290151560c08201529a9950505050505050505050565b6040805160028082526060820183526000926020830190803683370190505090508260000151816000815181106111ec576111ec612028565b60200260200101906001600160a01b031690816001600160a01b03168152505082602001518160018151811061122457611224612028565b6001600160a01b039092166020928302919091019091015260a083015160608401516040517f300854cb000000000000000000000000000000000000000000000000000000008152600092309263300854cb9261128992919087908990600401612177565b6020604051808303816000875af19250505080156112c4575060408051601f3d908101601f191682019092526112c19181019061208d565b60015b611317576112d06121b2565b806308c379a0141561130b57506112e56121ce565b806112f0575061130d565b80604051634ecb9b6d60e01b81526004016103f59190612258565b505b3d6000803e3d6000fd5b905083602001518260008151811061133157611331612028565b60200260200101906001600160a01b031690816001600160a01b03168152505083600001518260018151811061136957611369612028565b6001600160a01b039283166020918202929092018101919091528501516040516370a0823160e01b815230600482015260009291909116906370a0823190602401602060405180830381865afa1580156113c7573d6000803e3d6000fd5b505050506040513d601f19601f820116820180604052508101906113eb919061208d565b60c086015160808701516040517f5ee5cf600000000000000000000000000000000000000000000000000000000081529293503092635ee5cf609261143a92909188908790899060040161226b565b6020604051808303816000875af1925050508015611475575060408051601f3d908101601f191682019092526114729181019061208d565b60015b611481576112d06121b2565b505050505050565b60606000846000815181106114a0576114a0612028565b60209081029190910101516040516370a0823160e01b81523060048201526001600160a01b03909116906370a0823190602401602060405180830381865afa1580156114f0573d6000803e3d6000fd5b505050506040513d601f19601f82011682018060405250810190611514919061208d565b9050838110156115415760405163cf47918160e01b815260048101829052602481018590526044016103f5565b8460008151811061155457611554612028565b602090810291909101015160405163095ea7b360e01b81526001600160a01b038881166004830152602482018790529091169063095ea7b3906044016020604051808303816000875af11580156115af573d6000803e3d6000fd5b505050506040513d601f19601f820116820180604052508101906115d3919061200b565b61162057604051634ecb9b6d60e01b815260206004820152601660248201527f526f7574657220617070726f76616c206661696c65640000000000000000000060448201526064016103f5565b600061162e61012c42611fe5565b6040517f38ed17390000000000000000000000000000000000000000000000000000000081529091506001600160a01b038816906338ed17399061167e90889088908b90309088906004016122a9565b6000604051808303816000875af115801561169d573d6000803e3d6000fd5b505050506040513d6000823e601f3d908101601f191682016040526116c591908101906122e5565b9250856001815181106116da576116da612028565b60200260200101516001600160a01b0316866000815181106116fe576116fe612028565b60200260200101516001600160a01b03167f82e0ca488d93b6579de18b51cd61fb57aa30ae856e51f20ac33e69cc155035b9878660018151811061174457611744612028565b60209081029190910181015160408051938452918301526001600160a01b038c169082015260600160405180910390a35050949350505050565b6000808460008151811061179457611794612028565b60209081029190910101516040516370a0823160e01b81523060048201526001600160a01b03909116906370a0823190602401602060405180830381865afa1580156117e4573d6000803e3d6000fd5b505050506040513d601f19601f82011682018060405250810190611808919061208d565b9050838110156118355760405163cf47918160e01b815260048101829052602481018590526044016103f5565b8460008151811061184857611848612028565b602090810291909101015160405163095ea7b360e01b81526001600160a01b038881166004830152602482018790529091169063095ea7b3906044016020604051808303816000875af11580156118a3573d6000803e3d6000fd5b505050506040513d601f19601f820116820180604052508101906118c7919061200b565b61191457604051634ecb9b6d60e01b815260206004820152601660248201527f526f7574657220617070726f76616c206661696c65640000000000000000000060448201526064016103f5565b600061192261012c42611fe5565b90506000876001600160a01b031663c04b8d596040518060a001604052808a6040516020016119519190612381565b6040516020818303038152906040528152602001306001600160a01b03168152602001858152602001898152602001888152506040518263ffffffff1660e01b81526004016119a091906123c0565b6020604051808303816000875af11580156119bf573d6000803e3d6000fd5b505050506040513d601f19601f820116820180604052508101906119e3919061208d565b9050866001815181106119f8576119f8612028565b60200260200101516001600160a01b031687600081518110611a1c57611a1c612028565b60200260200101516001600160a01b03167f82e0ca488d93b6579de18b51cd61fb57aa30ae856e51f20ac33e69cc155035b988848c604051611a7a9392919092835260208301919091526001600160a01b0316604082015260600190565b60405180910390a3979650505050505050565b600080546001600160a01b038381167fffffffffffffffffffffffff0000000000000000000000000000000000000000831681178455604051919092169283917f8be0079c531659141344cd1fd0a4f28419497f9722a3daafe3b4186f6b6457e09190a35050565b6001600160a01b038116811461111257600080fd5b634e487b7160e01b600052604160045260246000fd5b601f8201601f1916810167ffffffffffffffff81118282101715611b4657611b46611b0a565b6040525050565b600080600060608486031215611b6257600080fd5b8335611b6d81611af5565b92506020848101359250604085013567ffffffffffffffff80821115611b9257600080fd5b818701915087601f830112611ba657600080fd5b813581811115611bb857611bb8611b0a565b6040519150611bd0601f8201601f1916850183611b20565b8082528884828501011115611be457600080fd5b80848401858401376000848284010152508093505050509250925092565b60008060008060008060a08789031215611c1b57600080fd5b8635611c2681611af5565b955060208701359450604087013593506060870135611c4481611af5565b9250608087013567ffffffffffffffff80821115611c6157600080fd5b818901915089601f830112611c7557600080fd5b813581811115611c8457600080fd5b8a6020828501011115611c9657600080fd5b6020830194508093505050509295509295509295565b801515811461111257600080fd5b600067ffffffffffffffff821115611cd457611cd4611b0a565b5060051b60200190565b600082601f830112611cef57600080fd5b81356020611cfc82611cba565b604051611d098282611b20565b83815260059390931b8501820192828101915086841115611d2957600080fd5b8286015b84811015611d4d578035611d4081611af5565b8352918301918301611d2d565b509695505050505050565b60008060008060808587031215611d6e57600080fd5b8435611d7981611cac565b93506020850135611d8981611af5565b9250604085013567ffffffffffffffff811115611da557600080fd5b611db187828801611cde565b949793965093946060013593505050565b600080600080600060a08688031215611dda57600080fd5b8535611de581611cac565b94506020860135611df581611af5565b9350604086013567ffffffffffffffff811115611e1157600080fd5b611e1d88828901611cde565b9598949750949560608101359550608001359392505050565b600080600080600080600060c0888a031215611e5157600080fd5b8735611e5c81611af5565b96506020880135611e6c81611af5565b9550604088013594506060880135611e8381611af5565b93506080880135611e9381611af5565b925060a088013567ffffffffffffffff80821115611eb057600080fd5b818a0191508a601f830112611ec457600080fd5b813581811115611ed357600080fd5b8b60208260051b8501011115611ee857600080fd5b60208301945080935050505092959891949750929550565b600060208284031215611f1257600080fd5b8135611f1d81611af5565b9392505050565b60008060408385031215611f3757600080fd5b8235611f4281611af5565b946020939093013593505050565b6000815180845260005b81811015611f7657602081850181015186830182015201611f5a565b81811115611f88576000602083870101525b50601f01601f19169290920160200192915050565b60006001600160a01b03808816835280871660208401525084604083015260a06060830152611fcf60a0830185611f50565b905061ffff831660808301529695505050505050565b6000821982111561200657634e487b7160e01b600052601160045260246000fd5b500190565b60006020828403121561201d57600080fd5b8151611f1d81611cac565b634e487b7160e01b600052603260045260246000fd5b60006020828403121561205057600080fd5b81516fffffffffffffffffffffffffffffffff81168114611f1d57600080fd5b60006020828403121561208257600080fd5b8135611f1d81611cac565b60006020828403121561209f57600080fd5b5051919050565b600080600080600080600060e0888a0312156120c157600080fd5b87356120cc81611af5565b965060208801356120dc81611af5565b95506040880135945060608801356120f381611af5565b9350608088013561210381611af5565b925060a088013561211381611cac565b915060c088013561212381611cac565b8091505092959891949750929550565b600081518084526020808501945080840160005b8381101561216c5781516001600160a01b031687529582019590820190600101612147565b509495945050505050565b84151581526001600160a01b03841660208201526080604082015260006121a16080830185612133565b905082606083015295945050505050565b600060033d11156121cb5760046000803e5060005160e01c5b90565b600060443d10156121dc5790565b6040516003193d81016004833e81513d67ffffffffffffffff816024840111818411171561220c57505050505090565b82850191508151818111156122245750505050505090565b843d870101602082850101111561223e5750505050505090565b61224d60208286010187611b20565b509095945050505050565b602081526000611f1d6020830184611f50565b85151581526001600160a01b038516602082015260a06040820152600061229560a0830186612133565b606083019490945250608001529392505050565b85815284602082015260a0604082015260006122c860a0830186612133565b6001600160a01b0394909416606083015250608001529392505050565b600060208083850312156122f857600080fd5b825167ffffffffffffffff81111561230f57600080fd5b8301601f8101851361232057600080fd5b805161232b81611cba565b6040516123388282611b20565b82815260059290921b830184019184810191508783111561235857600080fd5b928401925b828410156123765783518252928401929084019061235d565b979650505050505050565b815160009082906020808601845b838110156123b45781516001600160a01b03168552938201939082019060010161238f565b50929695505050505050565b602081526000825160a060208401526123dc60c0840182611f50565b90506001600160a01b0360208501511660408401526040840151606084015260608401516080840152608084015160a0840152809150509291505056fea264697066735822122053f39a5cea16c6659689bb34a5679a7932be4895d9dc6d32be942b3816c514bc64736f6c634300080a0033",
  "linkReferences": {},
  "deployedLinkReferences": {}
}