{
  "_format": "hh-sol-artifact-1",
  "contractName": "ArbitrageFlashLoan",
  "sourceName": "contracts/ArbitrageFlashLoan.sol",
  "abi": [
    {
      "inputs": [
        {
          "internalType": "address",
          "name": "_quickswapRouter",
          "type": "address"
        },
        {
          "internalType": "address",
          "name": "_sushiswapRouter",
          "type": "address"
        },
        {
          "internalType": "address",
          "name": "_weth",
          "type": "address"
        },
        {
          "internalType": "address",
          "name": "_usdc",
          "type": "address"
        }
      ],
      "stateMutability": "nonpayable",
      "type": "constructor"
    },
    {
      "inputs": [
        {
          "internalType": "address",
          "name": "owner",
          "type": "address"
        }
      ],
      "name": "OwnableInvalidOwner",
      "type": "error"
    },
    {
      "inputs": [
        {
          "internalType": "address",
          "name": "account",
          "type": "address"
        }
      ],
      "name": "OwnableUnauthorizedAccount",
      "type": "error"
    },
    {
      "anonymous": false,
      "inputs": [
        {
          "indexed": false,
          "internalType": "address",
          "name": "asset",
          "type": "address"
        },
        {
          "indexed": false,
          "internalType": "uint256",
          "name": "amount",
          "type": "uint256"
        },
        {
          "indexed": false,
          "internalType": "uint256",
          "name": "profit",
          "type": "uint256"
        }
      ],
      "name": "ArbitrageExecuted",
      "type": "event"
    },
    {
      "anonymous": false,
      "inputs": [
        {
          "indexed": true,
          "internalType": "address",
          "name": "previousOwner",
          "type": "address"
        },
        {
          "indexed": true,
          "internalType": "address",
          "name": "newOwner",
          "type": "address"
        }
      ],
      "name": "OwnershipTransferred",
      "type": "event"
    },
    {
      "anonymous": false,
      "inputs": [
        {
          "indexed": false,
          "internalType": "address",
          "name": "router",
          "type": "address"
        },
        {
          "indexed": false,
          "internalType": "address",
          "name": "tokenIn",
          "type": "address"
        },
        {
          "indexed": false,
          "internalType": "address",
          "name": "tokenOut",
          "type": "address"
        },
        {
          "indexed": false,
          "internalType": "uint256",
          "name": "amountIn",
          "type": "uint256"
        },
        {
          "indexed": false,
          "internalType": "uint256",
          "name": "amountOut",
          "type": "uint256"
        }
      ],
      "name": "TradeExecuted",
      "type": "event"
    },
    {
      "inputs": [],
      "name": "USDC",
      "outputs": [
        {
          "internalType": "address",
          "name": "",
          "type": "address"
        }
      ],
      "stateMutability": "view",
      "type": "function"
    },
    {
      "inputs": [],
      "name": "WETH",
      "outputs": [
        {
          "internalType": "address",
          "name": "",
          "type": "address"
        }
      ],
      "stateMutability": "view",
      "type": "function"
    },
    {
      "inputs": [
        {
          "internalType": "address",
          "name": "token",
          "type": "address"
        },
        {
          "internalType": "address",
          "name": "spender",
          "type": "address"
        },
        {
          "internalType": "uint256",
          "name": "amount",
          "type": "uint256"
        }
      ],
      "name": "approveToken",
      "outputs": [],
      "stateMutability": "nonpayable",
      "type": "function"
    },
    {
      "inputs": [
        {
          "internalType": "address",
          "name": "",
          "type": "address"
        },
        {
          "internalType": "uint256",
          "name": "",
          "type": "uint256"
        },
        {
          "internalType": "uint256",
          "name": "profitBasisPoints",
          "type": "uint256"
        }
      ],
      "name": "executeArbitrage",
      "outputs": [],
      "stateMutability": "pure",
      "type": "function"
    },
    {
      "inputs": [
        {
          "internalType": "address[]",
          "name": "assets",
          "type": "address[]"
        },
        {
          "internalType": "uint256[]",
          "name": "amounts",
          "type": "uint256[]"
        },
        {
          "internalType": "uint256[]",
          "name": "premiums",
          "type": "uint256[]"
        },
        {
          "internalType": "address",
          "name": "",
          "type": "address"
        },
        {
          "internalType": "bytes",
          "name": "params",
          "type": "bytes"
        }
      ],
      "name": "executeOperation",
      "outputs": [
        {
          "internalType": "bool",
          "name": "",
          "type": "bool"
        }
      ],
      "stateMutability": "nonpayable",
      "type": "function"
    },
    {
      "inputs": [],
      "name": "owner",
      "outputs": [
        {
          "internalType": "address",
          "name": "",
          "type": "address"
        }
      ],
      "stateMutability": "view",
      "type": "function"
    },
    {
      "inputs": [],
      "name": "quickswapRouter",
      "outputs": [
        {
          "internalType": "address",
          "name": "",
          "type": "address"
        }
      ],
      "stateMutability": "view",
      "type": "function"
    },
    {
      "inputs": [],
      "name": "renounceOwnership",
      "outputs": [],
      "stateMutability": "nonpayable",
      "type": "function"
    },
    {
      "inputs": [
        {
          "internalType": "address",
          "name": "token",
          "type": "address"
        },
        {
          "internalType": "address",
          "name": "spender",
          "type": "address"
        }
      ],
      "name": "revokeApproval",
      "outputs": [],
      "stateMutability": "nonpayable",
      "type": "function"
    },
    {
      "inputs": [],
      "name": "sushiswapRouter",
      "outputs": [
        {
          "internalType": "address",
          "name": "",
          "type": "address"
        }
      ],
      "stateMutability": "view",
      "type": "function"
    },
    {
      "inputs": [
        {
          "internalType": "address",
          "name": "newOwner",
          "type": "address"
        }
      ],
      "name": "transferOwnership",
      "outputs": [],
      "stateMutability": "nonpayable",
      "type": "function"
    },
    {
      "stateMutability": "payable",
      "type": "receive"
    }
  ],
  "bytecode": "0x6101003461013657601f610bc438819003918201601f19168301916001600160401b0383118484101761013b578084926080946040528339810103126101365761004881610151565b9061005560208201610151565b9061006e606061006760408401610151565b9201610151565b91331561011d5760008054336001600160a01b0319821681178355604051969290916001600160a01b0316907f8be0079c531659141344cd1fd0a4f28419497f9722a3daafe3b4186f6b6457e09080a360805260a05260c05260e052610a5e908161016682396080518181816103e1015261086e015260a05181818161014c0152818161043f01526105a3015260c0518181816102a901526104dc015260e05181818161051201526108b30152f35b604051631e4fbdf760e01b815260006004820152602490fd5b600080fd5b634e487b7160e01b600052604160045260246000fd5b51906001600160a01b03821682036101365756fe608080604052600436101561001d575b50361561001b57600080fd5b005b60003560e01c9081635767a74f1461093b57508063715018a6146108e257806389a302711461089d5780638d87c4eb146108585780638da5cb5b1461082f578063920f5c84146102d8578063ad5c464814610293578063d3bfe76a1461022b578063da3e33971461017b578063e9240c2d146101365763f2fde38b146100a3573861000f565b34610131576020366003190112610131576100bc61097a565b6100c46109d7565b6001600160a01b0390811690811561011857600054826bffffffffffffffffffffffff60a01b821617600055167f8be0079c531659141344cd1fd0a4f28419497f9722a3daafe3b4186f6b6457e0600080a3005b604051631e4fbdf760e01b815260006004820152602490fd5b600080fd5b34610131576000366003190112610131576040517f00000000000000000000000000000000000000000000000000000000000000006001600160a01b03168152602090f35b3461013157606036600319011261013157600060206101df61019b61097a565b6101a3610990565b6101ab6109d7565b60405163095ea7b360e01b81526001600160a01b039091166004820152604480356024830152909485938492839190820190565b03926001600160a01b03165af1801561021f576101f857005b61001b9060203d8111610218575b6102108183610a17565b810190610a39565b503d610206565b6040513d6000823e3d90fd5b34610131576040366003190112610131576000602061024861097a565b6044610252610990565b9161025b6109d7565b60405163095ea7b360e01b81526001600160a01b039384166004820152602481018690529485938492165af1801561021f576101f857005b34610131576000366003190112610131576040517f00000000000000000000000000000000000000000000000000000000000000006001600160a01b03168152602090f35b346101315760a03660031901126101315760043567ffffffffffffffff8111610131576103099036906004016109a6565b9060243567ffffffffffffffff81116101315761032a9036906004016109a6565b9260443567ffffffffffffffff81116101315761034b9036906004016109a6565b90946064356001600160a01b038116036101315760843567ffffffffffffffff8111610131573660238201121561013157806004013567ffffffffffffffff81116101315781019036602483011161013157602091031261013157156107d657156107d65783358235018235116106a157156107d6576001600160a01b036103d283610a03565b60405163095ea7b360e01b81527f00000000000000000000000000000000000000000000000000000000000000006001600160a01b0316600482015283356024820152911693906020816044816000895af1801561021f57610810575b5060405163095ea7b360e01b81527f00000000000000000000000000000000000000000000000000000000000000006001600160a01b03166004820152823560248201526020816044816000895af1801561021f576107f1575b506040516060810181811067ffffffffffffffff82111761079e576040526002815260403660208301376104bc84610a03565b8151156107d6576001600160a01b031660208201526104da84610a03565b7f0000000000000000000000000000000000000000000000000000000000000000906001600160a01b03908116908216036107ec57507f00000000000000000000000000000000000000000000000000000000000000005b8151600110156107d65760018060a01b0316604082015260405180916338ed173960e01b825260a48201853560048401526000602484015260a060448401528151809152602060c4840192019060005b8181106107b4575050306064840152504260848301526000919081900381837f00000000000000000000000000000000000000000000000000000000000000006001600160a01b03165af1801561021f57610708575b5060405163095ea7b360e01b815233600482015281358335016024820152936020856044816000855af190811561021f576024956020926106eb575b506040516370a0823160e01b815230600482015295869182905afa93841561021f576000946106b7575b503581350183039283116106a1577f147eadb5569d263d5aba3ca005001b85a1651d8da1204f22327ecdac7459e2ea92610679606093610a03565b604080516001600160a01b0390921682529235602082015291820152a1602060405160018152f35b634e487b7160e01b600052601160045260246000fd5b9093506020813d6020116106e3575b816106d360209383610a17565b810103126101315751928461063e565b3d91506106c6565b61070190833d8511610218576102108183610a17565b5086610614565b3d806000833e6107188183610a17565b8101906020818303126101315780519067ffffffffffffffff8211610131570181601f820112156101315780519067ffffffffffffffff821161079e576020808360051b936040519061076d83870183610a17565b8152019282010192831161013157602001905b82821061078e5750506105d8565b8151815260209182019101610780565b634e487b7160e01b600052604160045260246000fd5b82516001600160a01b0316845285945060209384019390920191600101610582565b634e487b7160e01b600052603260045260246000fd5b610532565b6108099060203d602011610218576102108183610a17565b5084610489565b6108289060203d602011610218576102108183610a17565b508461042f565b34610131576000366003190112610131576000546040516001600160a01b039091168152602090f35b34610131576000366003190112610131576040517f00000000000000000000000000000000000000000000000000000000000000006001600160a01b03168152602090f35b34610131576000366003190112610131576040517f00000000000000000000000000000000000000000000000000000000000000006001600160a01b03168152602090f35b34610131576000366003190112610131576108fb6109d7565b600080546001600160a01b0319811682556001600160a01b03167f8be0079c531659141344cd1fd0a4f28419497f9722a3daafe3b4186f6b6457e08280a3005b346101315760603660031901126101315761095461097a565b5060443560208201526020815267ffffffffffffffff6040820191821091111761079e57005b600435906001600160a01b038216820361013157565b602435906001600160a01b038216820361013157565b9181601f840112156101315782359167ffffffffffffffff8311610131576020808501948460051b01011161013157565b6000546001600160a01b031633036109eb57565b60405163118cdaa760e01b8152336004820152602490fd5b356001600160a01b03811681036101315790565b90601f8019910116810190811067ffffffffffffffff82111761079e57604052565b9081602091031261013157518015158103610131579056fea164736f6c6343000814000a",
  "linkReferences": {},
  "deployedLinkReferences": {}
}