{
  "_format": "hh-sol-artifact-1",
  "contractName": "MockAddressesProvider",
  "sourceName": "contracts/mocks/MockInterfaces.sol",
  "abi": [
    {
      "inputs": [],
      "stateMutability": "nonpayable",
      "type": "constructor"
    },
    {
      "inputs": [],
      "name": "getPool",
      "outputs": [
        {
          "internalType": "address",
          "name": "",
          "type": "address"
        }
      ],
      "stateMutability": "view",
      "type": "function"
    },
    {
      "inputs": [],
      "name": "pool",
      "outputs": [
        {
          "internalType": "address",
          "name": "",
          "type": "address"
        }
      ],
      "stateMutability": "view",
      "type": "function"
    }
  ],
  "bytecode": "0x60806040908082523461017657610bfc818101916001600160401b0391828411828510176101605761020a823980600093039083f080156101565782546001600160a01b0319166001600160a01b0391909116908117835583519182850181811184821017610142578552601583526020927f4d6f636b506f6f6c206465706c6f7965642061743a000000000000000000000084820152855180938582019563319af33360e01b8752886024840152835193846064850152885b85811061012b57505050908260a392886084601f96850101526044830152831993849101168101036064810185520116820190828210908211176101175784525182916a636f6e736f6c652e6c6f675afa5051608e908161017c8239f35b634e487b7160e01b84526041600452602484fd5b8181018301518882016084015287945082016100b9565b634e487b7160e01b85526041600452602485fd5b83513d84823e3d90fd5b634e487b7160e01b600052604160045260246000fd5b600080fdfe6080806040526004361015601257600080fd5b600090813560e01c908163026b1d5f14605b57506316f0115b14603457600080fd5b3460585780600319360112605857546040516001600160a01b039091168152602090f35b80fd5b905034607d5781600319360112607d5790546001600160a01b03168152602090f35b5080fdfea164736f6c6343000814000a6080346100fe576001600160401b0360408201818111838210176100d157604052601b825260207f4d6f636b506f6f6c20636f6e7374727563746f722063616c6c656400000000008184015260405192838281019263104c13eb60e21b845280602483015282519283604484015260005b8481106100e757505050808260006064601f95608395010152831993849101168101036044810186520116830191838310908311176100d157600092839260405251906a636f6e736f6c652e6c6f675afa50604051610af890816101048239f35b634e487b7160e01b600052604160045260246000fd5b818101830151888201606401528793508201610070565b600080fdfe608060408181526004908136101561001657600080fd5b600092833560e01c90816303105b04146108195750806342b0b77c1461035a578063d66bd5241461031f5763fc99bd9a1461005057600080fd5b3461031b578060031936011261031b57610068610905565b9160243560018060a01b038416908351926370a0823160e01b9182855230828601526020948581602481885afa908115610311579086918a916102dc575b5091610145610173936100ec8b8b516100be81610936565b601a81527f416464696e6720726573657276657320666f7220746f6b656e3a00000000000087820152610a9b565b61011a838b516100fb81610936565b600e81526d20b6b7bab73a103a379030b2321d60911b87820152610a43565b895161012581610936565b600f81526e2130b630b731b2903132b337b9329d60891b85820152610a43565b87516323b872dd60e01b81523385820190815230602082015260408101929092529283918291606090910190565b03818b885af19081156102d257906101929189916102a5575b506109a2565b845191825230908201528281602481855afa90811561029b578691610268575b5061026594816101e961022c9387516101ca81610936565b600e81526d2130b630b731b29030b33a32b91d60911b88820152610a43565b8388528785528588205584516101fe81610936565b601b81527f5265736572766573207570646174656420666f7220746f6b656e3a000000000085820152610a9b565b8452838152732732bb903932b9b2b93b32b99030b6b7bab73a1d60611b8285205492519161025983610936565b60148352820152610a43565b80f35b90508281813d8311610294575b61027f8183610968565b8101031261029057516102656101b2565b8580fd5b503d610275565b84513d88823e3d90fd5b6102c59150863d88116102cb575b6102bd8183610968565b81019061098a565b3861018c565b503d6102b3565b86513d8a823e3d90fd5b82819392503d831161030a575b6102f38183610968565b81010312610306575185906101456100a6565b8880fd5b503d6102e9565b87513d8b823e3d90fd5b8280fd5b8382346103565760203660031901126103565760209181906001600160a01b03610347610905565b16815280845220549051908152f35b5080fd5b503461031b5760a036600319011261031b57610374610905565b9161037d610920565b906044356064359167ffffffffffffffff958684116108155736602385011215610815578382013596871161081557602490368289870101116103065760843561ffff8116036103065761042f95898089516103d881610936565b6014815261042160209a8273119b185cda081b1bd85b881c995c5d595cdd195960621b8d809501528d519283918583019563104c13eb60e21b87528b8401526044830190610a03565b03601f198101835282610968565b51906a636f6e736f6c652e6c6f675afa5061046681895161044f81610936565b600681526520b9b9b2ba1d60d11b8a820152610a9b565b61048d85895161047581610936565b600781526620b6b7bab73a1d60c91b8a820152610a43565b60018060a01b0380911698898b528a88526104d2898c20548a516104b081610936565b601181527021bab93932b73a103932b9b2b93b32b99d60791b8b820152610a43565b88516370a0823160e01b81523086820152888186818e5afa801561079e578c906107e2575b61052891508a5161050781610936565b601081526f21bab93932b73a103130b630b731b29d60811b8b820152610a43565b898b528a885285898c2054106107a857885163a9059cbb60e01b81528383168682015284810187905288816044818f8f5af190811561079e5790610572918d9161078757506109a2565b898b528a8852888b20805490878203918211610775575560098602868104600914871517156107635789928b8d88858d968a6127108e98049e8f9a519a8b998a988997631b11d0ff60e01b89528801528387015260448601523360648601526084850160a090528260a48601520160c48401378281830160c40152601f1990601f011681010360c4019287165af1908115610759578a9161073c575b50156106fa578561065c9161062387876109e0565b89516323b872dd60e01b81526001600160a01b039092168683019081523060208201526040810191909152909283918291606090910190565b03818c8c5af19081156103115789916106dd575b501561069b57505091610688869261069695946109e0565b9482525283209182546109e0565b905580f35b855162461bcd60e51b8152918201859052601b908201527f466c617368206c6f616e2072657061796d656e74206661696c656400000000006044820152606490fd5b6106f49150863d88116102cb576102bd8183610968565b38610670565b865162461bcd60e51b8152808401879052601b818401527f466c617368206c6f616e20657865637574696f6e206661696c656400000000006044820152606490fd5b6107539150873d89116102cb576102bd8183610968565b3861060e565b88513d8c823e3d90fd5b634e487b7160e01b8c5260118652848cfd5b634e487b7160e01b8d5260118752858dfd5b6102c591508a3d8c116102cb576102bd8183610968565b8a513d8e823e3d90fd5b885162461bcd60e51b815280860189905260158186015274496e73756666696369656e7420726573657276657360581b6044820152606490fd5b508881813d831161080e575b6107f88183610968565b8101031261080a5761052890516104f7565b8b80fd5b503d6107ee565b8780fd5b929050346109015781600319360112610901576020906044610839610905565b9161087183610846610920565b9761085081610936565b601081526f20b8383937bb34b733903a37b5b2b71d60811b87820152610a9b565b61089d86865161088081610936565b600c81526b2337b91039b832b73232b91d60a11b87820152610a9b565b845163095ea7b360e01b81526001600160a01b0396871691810191909152600019602482015294859283918891165af19081156108f857506108dd575080f35b6108f49060203d81116102cb576102bd8183610968565b5080f35b513d84823e3d90fd5b8380fd5b600435906001600160a01b038216820361091b57565b600080fd5b602435906001600160a01b038216820361091b57565b6040810190811067ffffffffffffffff82111761095257604052565b634e487b7160e01b600052604160045260246000fd5b90601f8019910116810190811067ffffffffffffffff82111761095257604052565b9081602091031261091b5751801515810361091b5790565b156109a957565b60405162461bcd60e51b815260206004820152600f60248201526e151c985b9cd9995c8819985a5b1959608a1b6044820152606490fd5b919082018092116109ed57565b634e487b7160e01b600052601160045260246000fd5b919082519283825260005b848110610a2f575050826000602080949584010152601f8019910116010190565b602081830181015184830182015201610a0e565b600091908291610a886040518092610a746020830195632d839cb360e21b8752604060248501526064840190610a03565b90604483015203601f198101835282610968565b51906a636f6e736f6c652e6c6f675afa50565b600091908291610a886040518092610acc602083019563319af33360e01b8752604060248501526064840190610a03565b6001600160a01b0391909116604483015203601f19810183528261096856fea164736f6c6343000814000a",
  "linkReferences": {},
  "deployedLinkReferences": {}
}