{
  "_format": "hh-sol-artifact-1",
  "contractName": "MockRouter",
  "sourceName": "contracts/mocks/MockInterfaces.sol",
  "abi": [
    {
      "inputs": [
        {
          "internalType": "uint256",
          "name": "amountIn",
          "type": "uint256"
        },
        {
          "internalType": "address[]",
          "name": "path",
          "type": "address[]"
        }
      ],
      "name": "getAmountsOut",
      "outputs": [
        {
          "internalType": "uint256[]",
          "name": "amounts",
          "type": "uint256[]"
        }
      ],
      "stateMutability": "view",
      "type": "function"
    },
    {
      "inputs": [
        {
          "internalType": "address",
          "name": "",
          "type": "address"
        },
        {
          "internalType": "address",
          "name": "",
          "type": "address"
        }
      ],
      "name": "rates",
      "outputs": [
        {
          "internalType": "uint256",
          "name": "",
          "type": "uint256"
        }
      ],
      "stateMutability": "view",
      "type": "function"
    },
    {
      "inputs": [
        {
          "internalType": "address",
          "name": "tokenIn",
          "type": "address"
        },
        {
          "internalType": "address",
          "name": "tokenOut",
          "type": "address"
        },
        {
          "internalType": "uint256",
          "name": "rate",
          "type": "uint256"
        }
      ],
      "name": "setRate",
      "outputs": [],
      "stateMutability": "nonpayable",
      "type": "function"
    },
    {
      "inputs": [
        {
          "internalType": "uint256",
          "name": "amountIn",
          "type": "uint256"
        },
        {
          "internalType": "uint256",
          "name": "amountOutMin",
          "type": "uint256"
        },
        {
          "internalType": "address[]",
          "name": "path",
          "type": "address[]"
        },
        {
          "internalType": "address",
          "name": "to",
          "type": "address"
        },
        {
          "internalType": "uint256",
          "name": "deadline",
          "type": "uint256"
        }
      ],
      "name": "swapExactTokensForTokens",
      "outputs": [
        {
          "internalType": "uint256[]",
          "name": "amounts",
          "type": "uint256[]"
        }
      ],
      "stateMutability": "nonpayable",
      "type": "function"
    }
  ],
  "bytecode": "0x6080806040523461001657610688908161001c8239f35b600080fdfe60806040908082526004918236101561001757600080fd5b600091823560e01c90816338ed1739146101fb575080635911fb9a146101b35780637b0cf44d1461016c5763d06ca61f1461005157600080fd5b34610168578060031936011261016857823560243567ffffffffffffffff8111610164576100829036908601610501565b6100916002829693961461059e565b83519461009d866105d9565b6002865284366020880137836100b28761060b565b528115610151576001600160a01b0390816100cc8261063e565b16845283602052858420926001101561013e5761012a975092670de0b6b3a7640000949286926101016020610115970161063e565b168252602052205490811561012e57610652565b0461011f8361062e565b525191829182610563565b0390f35b671bc16d674ec800009150610652565b634e487b7160e01b845260328852602484fd5b634e487b7160e01b835260328752602483fd5b8380fd5b5080fd5b503461016857806003193601126101685780602092610189610537565b61019161054d565b6001600160a01b03918216835282865283832091168252845220549051908152f35b5034610168576060366003190112610168576101cd610537565b6101d561054d565b6001600160a01b0391821684526020848152838520929091168452528120604435905580f35b939050346104fd5760a03660031901126104fd5780359260449167ffffffffffffffff8335818111610164576102349036908401610501565b90976001600160a01b03606435818116939192908490036104f95742608435106104cf57506102656002821461059e565b8751986102718a6105d9565b60028a526020908936838d0137806102888c61060b565b5282156104bc57836102998d61063e565b16885287825289882092600110156104bc57818c0192846102b98561063e565b16895282528988205480156104ad575b6102dc670de0b6b3a76400009183610652565b046102e68c61062e565b5260249b8c356102f58d61062e565b511061046b578c6064898b8e8e968a61030e8a9861063e565b16915197889687956323b872dd60e01b8752339087015230908601528401525af1908115610461578891610406575b50156103d1575061034d9061063e565b16946103588861062e565b5191863b156103cd579085929183895198899485936340c10f1960e01b8552898501528d8401525af180156103c357610399575b84518061012a8882610563565b83116103b157505061012a935081523880808061038c565b634e487b7160e01b8252604190528490fd5b85513d85823e3d90fd5b8580fd5b8571151c985b9cd9995c881a5b8819985a5b195960721b8960128e6064958e519562461bcd60e51b8752860152840152820152fd5b9050813d831161045a575b601f8101601f191682018781118382101761044857839183918d528101031261044457518015158103610444573861033d565b8780fd5b634e487b7160e01b8a52604189528d8afd5b503d610411565b8a513d8a823e3d90fd5b5050857f496e73756666696369656e74206f757470757420616d6f756e7400000000000089601a8e6064958e519562461bcd60e51b8752860152840152820152fd5b50671bc16d674ec800006102c9565b634e487b7160e01b885260328752602488fd5b62461bcd60e51b81526020868201526007602482015266115e1c1a5c995960ca1b88820152606490fd5b8680fd5b8280fd5b9181601f840112156105325782359167ffffffffffffffff8311610532576020808501948460051b01011161053257565b600080fd5b600435906001600160a01b038216820361053257565b602435906001600160a01b038216820361053257565b6020908160408183019282815285518094520193019160005b82811061058a575050505090565b83518552938101939281019260010161057c565b156105a557565b60405162461bcd60e51b815260206004820152600c60248201526b092dcecc2d8d2c840e0c2e8d60a31b6044820152606490fd5b6060810190811067ffffffffffffffff8211176105f557604052565b634e487b7160e01b600052604160045260246000fd5b8051156106185760200190565b634e487b7160e01b600052603260045260246000fd5b8051600110156106185760400190565b356001600160a01b03811681036105325790565b8181029291811591840414171561066557565b634e487b7160e01b600052601160045260246000fdfea164736f6c6343000814000a",
  "linkReferences": {},
  "deployedLinkReferences": {}
}