{
  "_format": "hh-sol-artifact-1",
  "contractName": "FlashLoanReceiver",
  "sourceName": "contracts/FlashLoanReceiver.sol",
  "abi": [
    {
      "inputs": [
        {
          "internalType": "address",
          "name": "_addressProvider",
          "type": "address"
        }
      ],
      "stateMutability": "nonpayable",
      "type": "constructor"
    },
    {
      "inputs": [
        {
          "internalType": "address",
          "name": "owner",
          "type": "address"
        }
      ],
      "name": "OwnableInvalidOwner",
      "type": "error"
    },
    {
      "inputs": [
        {
          "internalType": "address",
          "name": "account",
          "type": "address"
        }
      ],
      "name": "OwnableUnauthorizedAccount",
      "type": "error"
    },
    {
      "anonymous": false,
      "inputs": [
        {
          "indexed": false,
          "internalType": "string",
          "name": "message",
          "type": "string"
        },
        {
          "indexed": false,
          "internalType": "uint256",
          "name": "value",
          "type": "uint256"
        }
      ],
      "name": "DebugLog",
      "type": "event"
    },
    {
      "anonymous": false,
      "inputs": [
        {
          "indexed": false,
          "internalType": "string",
          "name": "message",
          "type": "string"
        }
      ],
      "name": "ErrorLog",
      "type": "event"
    },
    {
      "anonymous": false,
      "inputs": [
        {
          "indexed": false,
          "internalType": "address",
          "name": "asset",
          "type": "address"
        },
        {
          "indexed": false,
          "internalType": "uint256",
          "name": "amount",
          "type": "uint256"
        },
        {
          "indexed": false,
          "internalType": "uint256",
          "name": "premium",
          "type": "uint256"
        }
      ],
      "name": "FlashLoanReceived",
      "type": "event"
    },
    {
      "anonymous": false,
      "inputs": [
        {
          "indexed": false,
          "internalType": "address",
          "name": "asset",
          "type": "address"
        },
        {
          "indexed": false,
          "internalType": "uint256",
          "name": "amount",
          "type": "uint256"
        }
      ],
      "name": "FlashLoanRequested",
      "type": "event"
    },
    {
      "anonymous": false,
      "inputs": [
        {
          "indexed": true,
          "internalType": "address",
          "name": "previousOwner",
          "type": "address"
        },
        {
          "indexed": true,
          "internalType": "address",
          "name": "newOwner",
          "type": "address"
        }
      ],
      "name": "OwnershipTransferred",
      "type": "event"
    },
    {
      "anonymous": false,
      "inputs": [
        {
          "indexed": false,
          "internalType": "address",
          "name": "asset",
          "type": "address"
        },
        {
          "indexed": false,
          "internalType": "uint256",
          "name": "amount",
          "type": "uint256"
        }
      ],
      "name": "RepaymentApproved",
      "type": "event"
    },
    {
      "anonymous": false,
      "inputs": [
        {
          "indexed": false,
          "internalType": "address",
          "name": "tokenIn",
          "type": "address"
        },
        {
          "indexed": false,
          "internalType": "address",
          "name": "tokenOut",
          "type": "address"
        },
        {
          "indexed": false,
          "internalType": "uint256",
          "name": "amountIn",
          "type": "uint256"
        },
        {
          "indexed": false,
          "internalType": "uint256",
          "name": "amountOut",
          "type": "uint256"
        }
      ],
      "name": "SwapExecuted",
      "type": "event"
    },
    {
      "inputs": [],
      "name": "ADDRESSES_PROVIDER",
      "outputs": [
        {
          "internalType": "contract IPoolAddressesProvider",
          "name": "",
          "type": "address"
        }
      ],
      "stateMutability": "view",
      "type": "function"
    },
    {
      "inputs": [],
      "name": "POOL",
      "outputs": [
        {
          "internalType": "contract IPool",
          "name": "",
          "type": "address"
        }
      ],
      "stateMutability": "view",
      "type": "function"
    },
    {
      "inputs": [
        {
          "internalType": "address",
          "name": "token",
          "type": "address"
        },
        {
          "internalType": "address",
          "name": "spender",
          "type": "address"
        },
        {
          "internalType": "uint256",
          "name": "amount",
          "type": "uint256"
        }
      ],
      "name": "approveToken",
      "outputs": [],
      "stateMutability": "nonpayable",
      "type": "function"
    },
    {
      "inputs": [
        {
          "internalType": "address",
          "name": "asset",
          "type": "address"
        },
        {
          "internalType": "uint256",
          "name": "amount",
          "type": "uint256"
        },
        {
          "internalType": "uint256",
          "name": "premium",
          "type": "uint256"
        },
        {
          "internalType": "address",
          "name": "",
          "type": "address"
        },
        {
          "internalType": "bytes",
          "name": "params",
          "type": "bytes"
        }
      ],
      "name": "executeOperation",
      "outputs": [
        {
          "internalType": "bool",
          "name": "",
          "type": "bool"
        }
      ],
      "stateMutability": "nonpayable",
      "type": "function"
    },
    {
      "inputs": [],
      "name": "owner",
      "outputs": [
        {
          "internalType": "address",
          "name": "",
          "type": "address"
        }
      ],
      "stateMutability": "view",
      "type": "function"
    },
    {
      "inputs": [],
      "name": "renounceOwnership",
      "outputs": [],
      "stateMutability": "nonpayable",
      "type": "function"
    },
    {
      "inputs": [
        {
          "internalType": "address",
          "name": "token",
          "type": "address"
        },
        {
          "internalType": "uint256",
          "name": "amount",
          "type": "uint256"
        },
        {
          "internalType": "bytes",
          "name": "params",
          "type": "bytes"
        }
      ],
      "name": "requestFlashLoan",
      "outputs": [],
      "stateMutability": "nonpayable",
      "type": "function"
    },
    {
      "inputs": [
        {
          "internalType": "address",
          "name": "newOwner",
          "type": "address"
        }
      ],
      "name": "transferOwnership",
      "outputs": [],
      "stateMutability": "nonpayable",
      "type": "function"
    },
    {
      "inputs": [
        {
          "internalType": "address",
          "name": "token",
          "type": "address"
        }
      ],
      "name": "withdraw",
      "outputs": [],
      "stateMutability": "nonpayable",
      "type": "function"
    }
  ],
  "bytecode": "0x60c0806040523462000134576004602062000ff1803803809162000024828762000139565b85396001600160a01b0393849162000040919081019062000173565b16806080526040519283809263026b1d5f60e01b82525afa801562000128578291600091620000f3575b501660a0523315620000da576000543360018060a01b0319821617600055604051913391167f8be0079c531659141344cd1fd0a4f28419497f9722a3daafe3b4186f6b6457e0600080a3610e5c9081620001958239608051816108d4015260a05181818161021d01526104750152f35b604051631e4fbdf760e01b815260006004820152602490fd5b62000119915060203d811162000120575b62000110818362000139565b81019062000173565b386200006a565b503d62000104565b6040513d6000823e3d90fd5b600080fd5b601f909101601f19168101906001600160401b038211908210176200015d57604052565b634e487b7160e01b600052604160045260246000fd5b908160209103126200013457516001600160a01b038116810362000134579056fe6080604081815260048036101561001557600080fd5b600092833560e01c9081630542975c146108c0575080631b11d0ff146105705780635107d61e146103e157806351cff8d9146102a9578063715018a61461024c5780637535d246146102085780638da5cb5b146101dc578063da3e3397146101195763f2fde38b1461008657600080fd5b346101155760203660031901126101155761009f610903565b906100a8610947565b6001600160a01b039182169283156100ff575050600054826bffffffffffffffffffffffff60a01b821617600055167f8be0079c531659141344cd1fd0a4f28419497f9722a3daafe3b4186f6b6457e0600080a380f35b51631e4fbdf760e01b8152908101849052602490fd5b8280fd5b50903461011557606036600319011261011557610134610903565b602435926001600160a01b039182851685036101d75761018e948660209461015a610947565b865163095ea7b360e01b81526001600160a01b03909316948301948552604435602086015291968794859391849160400190565b0393165af19081156101ce57506101a3575080f35b6101c39060203d81116101c7575b6101bb8183610987565b8101906109bf565b5080f35b503d6101b1565b513d84823e3d90fd5b600080fd5b505034610204578160031936011261020457905490516001600160a01b039091168152602090f35b5080fd5b505034610204578160031936011261020457517f00000000000000000000000000000000000000000000000000000000000000006001600160a01b03168152602090f35b83346102a657806003193601126102a657610265610947565b600080546001600160a01b0319811682556001600160a01b03167f8be0079c531659141344cd1fd0a4f28419497f9722a3daafe3b4186f6b6457e08280a380f35b80fd5b509190346102045760209081600319360112610115576102c7610903565b6102cf610947565b81516370a0823160e01b815230818701526001600160a01b0391909116948382602481895afa9182156103d75785926103a8575b50811561036d57825163a9059cbb60e01b8152339181019182526020820192909252909190839083908190036040018187895af19081156103645750610347578280f35b8161035d92903d106101c7576101bb8183610987565b5081808280f35b513d85823e3d90fd5b825162461bcd60e51b815290810184905260156024820152744e6f20746f6b656e7320746f20776974686472617760581b6044820152606490fd5b9091508381813d83116103d0575b6103c08183610987565b810103126101d757519038610303565b503d6103b6565b83513d87823e3d90fd5b509034610115576060366003190112610115576103fc610903565b602435929067ffffffffffffffff9060443582811161056c576104229036908501610919565b909186156105295785516001600160a01b03821681526020810188905288939291907f36b2acb66143c7d81ece04083e3157526cab9360d579ecd6ed68c9e7481123f190604090a16001600160a01b03927f0000000000000000000000000000000000000000000000000000000000000000841692833b1561052557878160c49288948c519d8e998a9889966310ac2ddf60e21b88523090880152166024860152604485015260a060648501528160a48501528484013783838284010152836084830152601f801991011681010301925af180156103d757610502578480f35b8311610512575052388080808480f35b634e487b7160e01b845260419052602483fd5b8580fd5b855162461bcd60e51b8152602081870152601d60248201527f416d6f756e74206d7573742062652067726561746572207468616e20300000006044820152606490fd5b8680fd5b5090346101155760a03660031901126101155761058b610903565b6001600160a01b03926024359190604435906064358681160361056c5760843567ffffffffffffffff81116108bc576105c79036908301610919565b81906060928391810103126108b8576105df81610973565b90602098886105ef8b8401610973565b9201359162ffffff8316968784036108b4578b977f1343998c8d6022eb07eb12064b021c43c49447832d6f53815b05b4b8f43a9ced878b848f8f898060809d16991699825194169e8f8552840152820152a18b51908c825260038d8301526246656560e81b888301528d820152600080516020610e30833981519152958691a18901988981116108a157928270119a5c9cdd081cddd85c081c995cdd5b1d607a1b8a61071f948f988f8f9b9a908b60809a926107058f8d95879f88888f9482828b518c8152600e8d8201526d0416d6f756e7420746f20737761760941b8c820152868b820152a18951908a8252600f8b8301526e416d6f756e7420746f20726570617960881b8a83015288820152a1898b6109d7565b9788926011855195808752860152840152820152a16109d7565b926b119a5b985b08185b5bdd5b9d60a21b8a51918b8352600c8c840152820152838b820152a11061084f57845163095ea7b360e01b8082523383830152602482018990528891888160448186895af1801561084557926107a995928a95928995610828575b5089519081523392810192835260208301949094529294859384929091839160400190565b03925af1801561081e577f314562d4d0dd0340fa30931e299dd755c5c2c14596a1bb6623310ad16348334a94959650610801575b5083516001600160a01b039190911681526020810191909152604090a15160018152f35b61081790863d88116101c7576101bb8183610987565b50386107dd565b84513d88823e3d90fd5b61083e90873d89116101c7576101bb8183610987565b5038610784565b88513d85823e3d90fd5b845162461bcd60e51b8152908101869052602660248201527f496e73756666696369656e742066756e647320746f20726570617920666c617360448201526534103637b0b760d11b6064820152608490fd5b634e487b7160e01b8d526011875260248dfd5b8c80fd5b8880fd5b8780fd5b8490346102045781600319360112610204577f00000000000000000000000000000000000000000000000000000000000000006001600160a01b03168152602090f35b600435906001600160a01b03821682036101d757565b9181601f840112156101d75782359167ffffffffffffffff83116101d757602083818601950101116101d757565b6000546001600160a01b0316330361095b57565b60405163118cdaa760e01b8152336004820152602490fd5b35906001600160a01b03821682036101d757565b90601f8019910116810190811067ffffffffffffffff8211176109a957604052565b634e487b7160e01b600052604160045260246000fd5b908160209103126101d7575180151581036101d75790565b9293600080516020610e30833981519152608060405160408152601760408201527f5374617274696e67207377617020657865637574696f6e0000000000000000006060820152856020820152a160405163095ea7b360e01b81526001600160a01b03868116600483015260006024830181905260209183916044918391908a165af18015610d9b57610e10575b5060405163095ea7b360e01b81526001600160a01b0386166004820152602481018490526020818060448101038160006001600160a01b038a165af18015610d9b57610df1575b50600080516020610e30833981519152608060405160408152601760408201527f526f7574657220617070726f76616c206772616e7465640000000000000000006060820152856020820152a160405163f7729d4360e01b81526001600160a01b038581166004830152838116602483015262ffffff8316604483015260648201859052600060848301819052919691602091889160a49183919086165af1958615610d9b57600096610dbd575b50600080516020610e308339815191526080604051604081526013604082015272115e1c1958dd195908185b5bdd5b9d081bdd5d606a1b6060820152886020820152a1606386029580870460631490151715610da757600080516020610e308339815191526080604051604081526012604082015271135a5b9a5b5d5b48185b5bdd5b9d081bdd5d60721b6060820152606489046020820152a161012c42014211610da757604051958661010081011067ffffffffffffffff610100890111176109a9578660646101049262ffffff60209661010060009c0160405260018060a01b038b16855260018060a01b0389168886015216604084015230606084015261012c420160808401528760a08401520460c08201528760e0820152604051978893849263414bf38960e01b845260018060a01b03815116600485015260018060a01b038782015116602485015262ffffff604082015116604485015260018060a01b0360608201511660648501526080810151608485015260a081015160a485015260c081015160c485015260e060018060a01b039101511660e484015260018060a01b03165af1938415610d9b57600094610d60575b50604080516001600160a01b039485168152939091166020840152820152606081018290527fdd36740e2a012d93061a0d99eaa9107860955de4e90027d3cf465a055026c40790608090a190565b91929093506020823d602011610d93575b81610d7e60209383610987565b810103126101d7579051929091906080610d12565b3d9150610d71565b6040513d6000823e3d90fd5b634e487b7160e01b600052601160045260246000fd5b9095506020813d602011610de9575b81610dd960209383610987565b810103126101d757519438610b5a565b3d9150610dcc565b610e099060203d6020116101c7576101bb8183610987565b5038610aac565b610e289060203d6020116101c7576101bb8183610987565b5038610a6556fef6ff2ad7fc16bda2a7d32462729431bce3ebe9b75cc7c9b35a0adfbf7e7bb9e6a164736f6c6343000814000a",
  "linkReferences": {},
  "deployedLinkReferences": {}
}