{
  "_format": "hh-sol-artifact-1",
  "contractName": "Withdrawable",
  "sourceName": "contracts/utils/Withdrawable.sol",
  "abi": [
    {
      "inputs": [],
      "stateMutability": "nonpayable",
      "type": "constructor"
    },
    {
      "inputs": [
        {
          "internalType": "address",
          "name": "owner",
          "type": "address"
        }
      ],
      "name": "OwnableInvalidOwner",
      "type": "error"
    },
    {
      "inputs": [
        {
          "internalType": "address",
          "name": "account",
          "type": "address"
        }
      ],
      "name": "OwnableUnauthorizedAccount",
      "type": "error"
    },
    {
      "anonymous": false,
      "inputs": [
        {
          "indexed": true,
          "internalType": "address",
          "name": "previousOwner",
          "type": "address"
        },
        {
          "indexed": true,
          "internalType": "address",
          "name": "newOwner",
          "type": "address"
        }
      ],
      "name": "OwnershipTransferred",
      "type": "event"
    },
    {
      "inputs": [],
      "name": "owner",
      "outputs": [
        {
          "internalType": "address",
          "name": "",
          "type": "address"
        }
      ],
      "stateMutability": "view",
      "type": "function"
    },
    {
      "inputs": [],
      "name": "renounceOwnership",
      "outputs": [],
      "stateMutability": "nonpayable",
      "type": "function"
    },
    {
      "inputs": [
        {
          "internalType": "address",
          "name": "newOwner",
          "type": "address"
        }
      ],
      "name": "transferOwnership",
      "outputs": [],
      "stateMutability": "nonpayable",
      "type": "function"
    },
    {
      "inputs": [],
      "name": "withdrawETH",
      "outputs": [],
      "stateMutability": "nonpayable",
      "type": "function"
    },
    {
      "inputs": [
        {
          "internalType": "address",
          "name": "token",
          "type": "address"
        }
      ],
      "name": "withdrawToken",
      "outputs": [],
      "stateMutability": "nonpayable",
      "type": "function"
    }
  ],
  "bytecode": "0x6080806040523461007a5733156100645760008054336001600160a01b03198216811783556040519290916001600160a01b0316907f8be0079c531659141344cd1fd0a4f28419497f9722a3daafe3b4186f6b6457e09080a361045490816100808239f35b631e4fbdf760e01b815260006004820152602490fd5b600080fdfe60406080815260048036101561001457600080fd5b600091823560e01c8063715018a61461034857806389476069146101e65780638da5cb5b146101be578063e086e5ec146100e75763f2fde38b1461005757600080fd5b346100e35760203660031901126100e3576001600160a01b038235818116939192908490036100df576100886103a5565b83156100c957505082546001600160a01b0319811683178455167f8be0079c531659141344cd1fd0a4f28419497f9722a3daafe3b4186f6b6457e08380a380f35b51631e4fbdf760e01b8152908101849052602490fd5b8480fd5b8280fd5b508290346101ba57816003193601126101ba576101026103a5565b47801561018257825483918291829182916001600160a01b03165af1903d15610176573d9067ffffffffffffffff82116101635761016093945051906101526020601f19601f84011601836103d1565b81528360203d92013e610409565b80f35b634e487b7160e01b845260418552602484fd5b50610160919250610409565b815162461bcd60e51b815260208186015260126024820152714e6f2045544820746f20776974686472617760701b6044820152606490fd5b5080fd5b8382346101ba57816003193601126101ba57905490516001600160a01b039091168152602090f35b50346100e357602080600319360112610344576001600160a01b039280358481169190829003610340576102186103a5565b83516370a0823160e01b81523082820152948386602481865afa958615610336578796610303575b5085156102c85783929187604492815416938751988995869463a9059cbb60e01b865285015260248401525af19182156102bf57508391610286575b8361016083610409565b905081813d83116102b8575b61029c81836103d1565b810103126101ba575180151581036101ba57610160903861027c565b503d610292565b513d85823e3d90fd5b845162461bcd60e51b815280830185905260156024820152744e6f20746f6b656e7320746f20776974686472617760581b6044820152606490fd5b9095508381813d831161032f575b61031b81836103d1565b8101031261032b57519438610240565b8680fd5b503d610311565b85513d89823e3d90fd5b8580fd5b8380fd5b83346103a257806003193601126103a2576103616103a5565b80546001600160a01b03198116825581906001600160a01b03167f8be0079c531659141344cd1fd0a4f28419497f9722a3daafe3b4186f6b6457e08280a380f35b80fd5b6000546001600160a01b031633036103b957565b60405163118cdaa760e01b8152336004820152602490fd5b90601f8019910116810190811067ffffffffffffffff8211176103f357604052565b634e487b7160e01b600052604160045260246000fd5b1561041057565b60405162461bcd60e51b815260206004820152600f60248201526e151c985b9cd9995c8819985a5b1959608a1b6044820152606490fdfea164736f6c6343000814000a",
  "linkReferences": {},
  "deployedLinkReferences": {}
}